{
  "contractName": "Marketplace",
  "abi": [
    {
      "inputs": [
        {
          "internalType": "address",
          "name": "factoryAdress",
          "type": "address"
        }
      ],
      "stateMutability": "nonpayable",
      "type": "constructor"
    },
    {
      "anonymous": false,
      "inputs": [
        {
          "indexed": false,
          "internalType": "enum Marketplace.ListingStatus",
          "name": "status",
          "type": "uint8"
        },
        {
          "indexed": false,
          "internalType": "uint256",
          "name": "listingId",
          "type": "uint256"
        },
        {
          "indexed": false,
          "internalType": "address",
          "name": "Creator",
          "type": "address"
        },
        {
          "indexed": false,
          "internalType": "address",
          "name": "seller",
          "type": "address"
        },
        {
          "indexed": false,
          "internalType": "address",
          "name": "token",
          "type": "address"
        },
        {
          "indexed": false,
          "internalType": "uint256",
          "name": "tokenId",
          "type": "uint256"
        },
        {
          "indexed": false,
          "internalType": "uint256",
          "name": "price",
          "type": "uint256"
        },
        {
          "indexed": false,
          "internalType": "string",
          "name": "collection",
          "type": "string"
        },
        {
          "indexed": false,
          "internalType": "string",
          "name": "JSONTokenURI",
          "type": "string"
        }
      ],
      "name": "Buyed",
      "type": "event"
    },
    {
      "anonymous": false,
      "inputs": [
        {
          "indexed": false,
          "internalType": "enum Marketplace.ListingStatus",
          "name": "status",
          "type": "uint8"
        },
        {
          "indexed": false,
          "internalType": "uint256",
          "name": "listingId",
          "type": "uint256"
        },
        {
          "indexed": false,
          "internalType": "address",
          "name": "Creator",
          "type": "address"
        },
        {
          "indexed": false,
          "internalType": "address",
          "name": "seller",
          "type": "address"
        },
        {
          "indexed": false,
          "internalType": "address",
          "name": "token",
          "type": "address"
        },
        {
          "indexed": false,
          "internalType": "uint256",
          "name": "tokenId",
          "type": "uint256"
        },
        {
          "indexed": false,
          "internalType": "uint256",
          "name": "price",
          "type": "uint256"
        },
        {
          "indexed": false,
          "internalType": "string",
          "name": "collection",
          "type": "string"
        },
        {
          "indexed": false,
          "internalType": "string",
          "name": "JSONTokenURI",
          "type": "string"
        }
      ],
      "name": "Cancelled",
      "type": "event"
    },
    {
      "anonymous": false,
      "inputs": [
        {
          "indexed": false,
          "internalType": "enum Marketplace.ListingStatus",
          "name": "status",
          "type": "uint8"
        },
        {
          "indexed": false,
          "internalType": "uint256",
          "name": "listingId",
          "type": "uint256"
        },
        {
          "indexed": false,
          "internalType": "address",
          "name": "Creator",
          "type": "address"
        },
        {
          "indexed": false,
          "internalType": "address",
          "name": "seller",
          "type": "address"
        },
        {
          "indexed": false,
          "internalType": "address",
          "name": "token",
          "type": "address"
        },
        {
          "indexed": false,
          "internalType": "uint256",
          "name": "tokenId",
          "type": "uint256"
        },
        {
          "indexed": false,
          "internalType": "uint256",
          "name": "price",
          "type": "uint256"
        },
        {
          "indexed": false,
          "internalType": "string",
          "name": "collection",
          "type": "string"
        },
        {
          "indexed": false,
          "internalType": "string",
          "name": "JSONTokenURI",
          "type": "string"
        }
      ],
      "name": "Listed",
      "type": "event"
    },
    {
      "anonymous": false,
      "inputs": [
        {
          "indexed": false,
          "internalType": "enum Marketplace.ListingStatus",
          "name": "status",
          "type": "uint8"
        },
        {
          "indexed": false,
          "internalType": "uint256",
          "name": "listingId",
          "type": "uint256"
        },
        {
          "indexed": false,
          "internalType": "address",
          "name": "Creator",
          "type": "address"
        },
        {
          "indexed": false,
          "internalType": "address",
          "name": "seller",
          "type": "address"
        },
        {
          "indexed": false,
          "internalType": "address",
          "name": "token",
          "type": "address"
        },
        {
          "indexed": false,
          "internalType": "uint256",
          "name": "tokenId",
          "type": "uint256"
        },
        {
          "indexed": false,
          "internalType": "string",
          "name": "collection",
          "type": "string"
        },
        {
          "indexed": false,
          "internalType": "string",
          "name": "JSONTokenURI",
          "type": "string"
        }
      ],
      "name": "Showed",
      "type": "event"
    },
    {
      "inputs": [
        {
          "internalType": "uint256",
          "name": "listingId",
          "type": "uint256"
        }
      ],
      "name": "getListing",
      "outputs": [
        {
          "components": [
            {
              "internalType": "enum Marketplace.ListingStatus",
              "name": "status",
              "type": "uint8"
            },
            {
              "internalType": "address",
              "name": "Creator",
              "type": "address"
            },
            {
              "internalType": "address",
              "name": "seller",
              "type": "address"
            },
            {
              "internalType": "address",
              "name": "tokenContract",
              "type": "address"
            },
            {
              "internalType": "uint256",
              "name": "tokenId",
              "type": "uint256"
            },
            {
              "internalType": "uint256",
              "name": "price",
              "type": "uint256"
            },
            {
              "internalType": "string",
              "name": "collection",
              "type": "string"
            },
            {
              "internalType": "string",
              "name": "JSONTokenURI",
              "type": "string"
            }
          ],
          "internalType": "struct Marketplace.Listing",
          "name": "",
          "type": "tuple"
        }
      ],
      "stateMutability": "view",
      "type": "function",
      "constant": true
    },
    {
      "inputs": [
        {
          "internalType": "address",
          "name": "_yourAddress",
          "type": "address"
        }
      ],
      "name": "getUserCollections",
      "outputs": [
        {
          "internalType": "address[]",
          "name": "",
          "type": "address[]"
        }
      ],
      "stateMutability": "view",
      "type": "function",
      "constant": true
    },
    {
      "inputs": [
        {
          "internalType": "uint256",
          "name": "listingId",
          "type": "uint256"
        }
      ],
      "name": "getSellActivity",
      "outputs": [
        {
          "internalType": "address[]",
          "name": "",
          "type": "address[]"
        }
      ],
      "stateMutability": "view",
      "type": "function",
      "constant": true
    },
    {
      "inputs": [
        {
          "internalType": "address",
          "name": "_youraddress",
          "type": "address"
        }
      ],
      "name": "getListOfNFTfromUser",
      "outputs": [
        {
          "components": [
            {
              "internalType": "address",
              "name": "tokenContract",
              "type": "address"
            },
            {
              "internalType": "uint256",
              "name": "tokenId",
              "type": "uint256"
            },
            {
              "internalType": "string",
              "name": "collection",
              "type": "string"
            },
            {
              "internalType": "string",
              "name": "JSONTokenURI",
              "type": "string"
            },
            {
              "internalType": "uint256",
              "name": "myindex",
              "type": "uint256"
            }
          ],
          "internalType": "struct Marketplace.MyBuyedNFT[]",
          "name": "",
          "type": "tuple[]"
        }
      ],
      "stateMutability": "view",
      "type": "function",
      "constant": true
    },
    {
      "inputs": [
        {
          "internalType": "address",
          "name": "_tokenContract",
          "type": "address"
        },
        {
          "internalType": "uint256",
          "name": "_tokenId",
          "type": "uint256"
        }
      ],
      "name": "showToken",
      "outputs": [],
      "stateMutability": "nonpayable",
      "type": "function"
    },
    {
      "inputs": [
        {
          "internalType": "uint256",
          "name": "listingId",
          "type": "uint256"
        },
        {
          "internalType": "uint256",
          "name": "_price",
          "type": "uint256"
        }
      ],
      "name": "listToken",
      "outputs": [],
      "stateMutability": "nonpayable",
      "type": "function"
    },
    {
      "inputs": [
        {
          "internalType": "uint256",
          "name": "listingId",
          "type": "uint256"
        }
      ],
      "name": "buyToken",
      "outputs": [],
      "stateMutability": "payable",
      "type": "function",
      "payable": true
    },
    {
      "inputs": [
        {
          "internalType": "uint256",
          "name": "listingId",
          "type": "uint256"
        }
      ],
      "name": "cancel",
      "outputs": [],
      "stateMutability": "payable",
      "type": "function",
      "payable": true
    },
    {
      "inputs": [
        {
          "internalType": "string",
          "name": "_Collectionname",
          "type": "string"
        },
        {
          "internalType": "string",
          "name": "_Collectionsymbol",
          "type": "string"
        },
        {
          "internalType": "string",
          "name": "_CollectionBaseUri",
          "type": "string"
        },
        {
          "internalType": "uint256",
          "name": "_NumberOfNftToMint",
          "type": "uint256"
        }
      ],
      "name": "DeployMyNFTCollection",
      "outputs": [],
      "stateMutability": "payable",
      "type": "function",
      "payable": true
    },
    {
      "inputs": [
        {
          "internalType": "address",
          "name": "_thisCollection",
          "type": "address"
        }
      ],
      "name": "addItemToCollection",
      "outputs": [],
      "stateMutability": "nonpayable",
      "type": "function"
    }
  ],
  "bytecode": "0x608060405260018060006101000a81548160ff0219169083151502179055506000600255683635c9adc5dea000006003553480156200003d57600080fd5b506040516200397d3803806200397d833981810160405281019062000063919062000115565b80600460006101000a81548173ffffffffffffffffffffffffffffffffffffffff021916908373ffffffffffffffffffffffffffffffffffffffff1602179055505062000147565b600080fd5b600073ffffffffffffffffffffffffffffffffffffffff82169050919050565b6000620000dd82620000b0565b9050919050565b620000ef81620000d0565b8114620000fb57600080fd5b50565b6000815190506200010f81620000e4565b92915050565b6000602082840312156200012e576200012d620000ab565b5b60006200013e84828501620000fe565b91505092915050565b61382680620001576000396000f3fe6080604052600436106100915760003560e01c80637d2be151116100595780637d2be151146101715780639aa5ad8c1461019a578063a2333ec2146101d7578063a299436b146101f3578063eea0bca61461021c57610091565b8063107a274a146100965780632d296bf1146100d357806340e58ee5146100ef5780635df9f0b41461010b57806375c1631d14610148575b600080fd5b3480156100a257600080fd5b506100bd60048036038101906100b8919061276f565b610259565b6040516100ca91906129b3565b60405180910390f35b6100ed60048036038101906100e8919061276f565b6104fc565b005b6101096004803603810190610104919061276f565b610fd9565b005b34801561011757600080fd5b50610132600480360381019061012d919061276f565b611316565b60405161013f9190612a84565b60405180910390f35b34801561015457600080fd5b5061016f600480360381019061016a9190612aa6565b611654565b005b34801561017d57600080fd5b5061019860048036038101906101939190612b12565b611b50565b005b3480156101a657600080fd5b506101c160048036038101906101bc9190612b52565b611f9d565b6040516101ce9190612a84565b60405180910390f35b6101f160048036038101906101ec9190612be4565b61206a565b005b3480156101ff57600080fd5b5061021a60048036038101906102159190612b52565b6122ef565b005b34801561022857600080fd5b50610243600480360381019061023e9190612b52565b61237d565b6040516102509190612dec565b60405180910390f35b6102616125a9565b60056000838152602001908152602001600020604051806101000160405290816000820160009054906101000a900460ff1660018111156102a5576102a461279c565b5b60018111156102b7576102b661279c565b5b81526020016000820160019054906101000a900473ffffffffffffffffffffffffffffffffffffffff1673ffffffffffffffffffffffffffffffffffffffff1673ffffffffffffffffffffffffffffffffffffffff1681526020016001820160009054906101000a900473ffffffffffffffffffffffffffffffffffffffff1673ffffffffffffffffffffffffffffffffffffffff1673ffffffffffffffffffffffffffffffffffffffff1681526020016002820160009054906101000a900473ffffffffffffffffffffffffffffffffffffffff1673ffffffffffffffffffffffffffffffffffffffff1673ffffffffffffffffffffffffffffffffffffffff16815260200160038201548152602001600482015481526020016005820180546103e190612e3d565b80601f016020809104026020016040519081016040528092919081815260200182805461040d90612e3d565b801561045a5780601f1061042f5761010080835404028352916020019161045a565b820191906000526020600020905b81548152906001019060200180831161043d57829003601f168201915b5050505050815260200160068201805461047390612e3d565b80601f016020809104026020016040519081016040528092919081815260200182805461049f90612e3d565b80156104ec5780601f106104c1576101008083540402835291602001916104ec565b820191906000526020600020905b8154815290600101906020018083116104cf57829003601f168201915b5050505050815250509050919050565b80600073ffffffffffffffffffffffffffffffffffffffff166005600083815260200190815260200160002060020160009054906101000a900473ffffffffffffffffffffffffffffffffffffffff1673ffffffffffffffffffffffffffffffffffffffff16036105a2576040517f08c379a000000000000000000000000000000000000000000000000000000000815260040161059990612ecb565b60405180910390fd5b60006005600084815260200190815260200160002090506000600860008360010160009054906101000a900473ffffffffffffffffffffffffffffffffffffffff1673ffffffffffffffffffffffffffffffffffffffff1673ffffffffffffffffffffffffffffffffffffffff1681526020019081526020016000208054905090506001808111156106375761063661279c565b5b8260000160009054906101000a900460ff16600181111561065b5761065a61279c565b5b1461069b576040517f08c379a000000000000000000000000000000000000000000000000000000000815260040161069290612f37565b60405180910390fd5b8160010160009054906101000a900473ffffffffffffffffffffffffffffffffffffffff1673ffffffffffffffffffffffffffffffffffffffff163373ffffffffffffffffffffffffffffffffffffffff160361072d576040517f08c379a000000000000000000000000000000000000000000000000000000000815260040161072490612fa3565b60405180910390fd5b81600401543414610773576040517f08c379a000000000000000000000000000000000000000000000000000000000815260040161076a9061300f565b60405180910390fd5b8160000160019054906101000a900473ffffffffffffffffffffffffffffffffffffffff1673ffffffffffffffffffffffffffffffffffffffff168260010160009054906101000a900473ffffffffffffffffffffffffffffffffffffffff1673ffffffffffffffffffffffffffffffffffffffff1614610a8c57600080600090505b828110156109ac57600860008560010160009054906101000a900473ffffffffffffffffffffffffffffffffffffffff1673ffffffffffffffffffffffffffffffffffffffff1673ffffffffffffffffffffffffffffffffffffffff16815260200190815260200160002081815481106108735761087261302f565b5b906000526020600020906005020160000160009054906101000a900473ffffffffffffffffffffffffffffffffffffffff1673ffffffffffffffffffffffffffffffffffffffff168460020160009054906101000a900473ffffffffffffffffffffffffffffffffffffffff1673ffffffffffffffffffffffffffffffffffffffff1614801561098c5750600860008560010160009054906101000a900473ffffffffffffffffffffffffffffffffffffffff1673ffffffffffffffffffffffffffffffffffffffff1673ffffffffffffffffffffffffffffffffffffffff16815260200190815260200160002081815481106109735761097261302f565b5b9060005260206000209060050201600101548460030154145b15610999578091506109ac565b80806109a49061308d565b9150506107f6565b50600860008460010160009054906101000a900473ffffffffffffffffffffffffffffffffffffffff1673ffffffffffffffffffffffffffffffffffffffff1673ffffffffffffffffffffffffffffffffffffffff1681526020019081526020016000208181548110610a2257610a2161302f565b5b9060005260206000209060050201600080820160006101000a81549073ffffffffffffffffffffffffffffffffffffffff02191690556001820160009055600282016000610a709190612642565b600382016000610a809190612642565b60048201600090555050505b8160010160009054906101000a900473ffffffffffffffffffffffffffffffffffffffff1673ffffffffffffffffffffffffffffffffffffffff166108fc83600401549081150290604051600060405180830381858888f19350505050158015610afa573d6000803e3d6000fd5b508160020160009054906101000a900473ffffffffffffffffffffffffffffffffffffffff1673ffffffffffffffffffffffffffffffffffffffff166323b872dd303385600301546040518463ffffffff1660e01b8152600401610b60939291906130f3565b600060405180830381600087803b158015610b7a57600080fd5b505af1158015610b8e573d6000803e3d6000fd5b5050505060008260000160006101000a81548160ff02191690836001811115610bba57610bb961279c565b5b0217905550338260010160006101000a81548173ffffffffffffffffffffffffffffffffffffffff021916908373ffffffffffffffffffffffffffffffffffffffff16021790555060035482600401819055506007600083600301548152602001908152602001600020339080600181540180825580915050600190039060005260206000200160009091909190916101000a81548173ffffffffffffffffffffffffffffffffffffffff021916908373ffffffffffffffffffffffffffffffffffffffff160217905550600860003373ffffffffffffffffffffffffffffffffffffffff1673ffffffffffffffffffffffffffffffffffffffff1681526020019081526020016000206040518060a001604052808460020160009054906101000a900473ffffffffffffffffffffffffffffffffffffffff1673ffffffffffffffffffffffffffffffffffffffff16815260200184600301548152602001846005018054610d2890612e3d565b80601f0160208091040260200160405190810160405280929190818152602001828054610d5490612e3d565b8015610da15780601f10610d7657610100808354040283529160200191610da1565b820191906000526020600020905b815481529060010190602001808311610d8457829003601f168201915b50505050508152602001846006018054610dba90612e3d565b80601f0160208091040260200160405190810160405280929190818152602001828054610de690612e3d565b8015610e335780601f10610e0857610100808354040283529160200191610e33565b820191906000526020600020905b815481529060010190602001808311610e1657829003601f168201915b5050505050815260200183815250908060018154018082558091505060019003906000526020600020906005020160009091909190915060008201518160000160006101000a81548173ffffffffffffffffffffffffffffffffffffffff021916908373ffffffffffffffffffffffffffffffffffffffff160217905550602082015181600101556040820151816002019080519060200190610ed7929190612682565b506060820151816003019080519060200190610ef4929190612682565b506080820151816004015550507f51353ef1fff271a2d72b094c20468c9d1724dd61cc9336e13432d1f9ca3be12e8260000160009054906101000a900460ff16858460000160019054906101000a900473ffffffffffffffffffffffffffffffffffffffff168560010160009054906101000a900473ffffffffffffffffffffffffffffffffffffffff168660020160009054906101000a900473ffffffffffffffffffffffffffffffffffffffff1687600301548860040154896005018a600601604051610fcb999897969594939291906131ce565b60405180910390a150505050565b80600073ffffffffffffffffffffffffffffffffffffffff166005600083815260200190815260200160002060020160009054906101000a900473ffffffffffffffffffffffffffffffffffffffff1673ffffffffffffffffffffffffffffffffffffffff160361107f576040517f08c379a000000000000000000000000000000000000000000000000000000000815260040161107690612ecb565b60405180910390fd5b60006005600084815260200190815260200160002090508060010160009054906101000a900473ffffffffffffffffffffffffffffffffffffffff1673ffffffffffffffffffffffffffffffffffffffff163373ffffffffffffffffffffffffffffffffffffffff1614611128576040517f08c379a000000000000000000000000000000000000000000000000000000000815260040161111f906132b5565b60405180910390fd5b60018081111561113b5761113a61279c565b5b8160000160009054906101000a900460ff16600181111561115f5761115e61279c565b5b1461119f576040517f08c379a000000000000000000000000000000000000000000000000000000000815260040161119690612f37565b60405180910390fd5b60008160000160006101000a81548160ff021916908360018111156111c7576111c661279c565b5b02179055508060020160009054906101000a900473ffffffffffffffffffffffffffffffffffffffff1673ffffffffffffffffffffffffffffffffffffffff166323b872dd303384600301546040518463ffffffff1660e01b8152600401611231939291906130f3565b600060405180830381600087803b15801561124b57600080fd5b505af115801561125f573d6000803e3d6000fd5b505050507fcf8d381ef37f0c86b242bc58dd86fd096104012630643649483aa413ef877bbf8160000160009054906101000a900460ff16848360000160019054906101000a900473ffffffffffffffffffffffffffffffffffffffff16338560020160009054906101000a900473ffffffffffffffffffffffffffffffffffffffff16866003015487600401548860050189600601604051611309999897969594939291906131ce565b60405180910390a1505050565b6060600060056000848152602001908152602001600020604051806101000160405290816000820160009054906101000a900460ff16600181111561135e5761135d61279c565b5b60018111156113705761136f61279c565b5b81526020016000820160019054906101000a900473ffffffffffffffffffffffffffffffffffffffff1673ffffffffffffffffffffffffffffffffffffffff1673ffffffffffffffffffffffffffffffffffffffff1681526020016001820160009054906101000a900473ffffffffffffffffffffffffffffffffffffffff1673ffffffffffffffffffffffffffffffffffffffff1673ffffffffffffffffffffffffffffffffffffffff1681526020016002820160009054906101000a900473ffffffffffffffffffffffffffffffffffffffff1673ffffffffffffffffffffffffffffffffffffffff1673ffffffffffffffffffffffffffffffffffffffff168152602001600382015481526020016004820154815260200160058201805461149a90612e3d565b80601f01602080910402602001604051908101604052809291908181526020018280546114c690612e3d565b80156115135780601f106114e857610100808354040283529160200191611513565b820191906000526020600020905b8154815290600101906020018083116114f657829003601f168201915b5050505050815260200160068201805461152c90612e3d565b80601f016020809104026020016040519081016040528092919081815260200182805461155890612e3d565b80156115a55780601f1061157a576101008083540402835291602001916115a5565b820191906000526020600020905b81548152906001019060200180831161158857829003601f168201915b5050505050815250509050600760008260800151815260200190815260200160002080548060200260200160405190810160405280929190818152602001828054801561164757602002820191906000526020600020905b8160009054906101000a900473ffffffffffffffffffffffffffffffffffffffff1673ffffffffffffffffffffffffffffffffffffffff16815260200190600101908083116115fd575b5050505050915050919050565b81600073ffffffffffffffffffffffffffffffffffffffff166005600083815260200190815260200160002060020160009054906101000a900473ffffffffffffffffffffffffffffffffffffffff1673ffffffffffffffffffffffffffffffffffffffff16036116fa576040517f08c379a00000000000000000000000000000000000000000000000000000000081526004016116f190612ecb565b60405180910390fd5b600060056000858152602001908152602001600020905060003090503373ffffffffffffffffffffffffffffffffffffffff168260020160009054906101000a900473ffffffffffffffffffffffffffffffffffffffff1673ffffffffffffffffffffffffffffffffffffffff16636352211e84600301546040518263ffffffff1660e01b815260040161178e91906132d5565b602060405180830381865afa1580156117ab573d6000803e3d6000fd5b505050506040513d601f19601f820116820180604052508101906117cf9190613305565b73ffffffffffffffffffffffffffffffffffffffff1614611825576040517f08c379a000000000000000000000000000000000000000000000000000000000815260040161181c9061337e565b60405180910390fd5b600060018111156118395761183861279c565b5b8260000160009054906101000a900460ff16600181111561185d5761185c61279c565b5b1461189d576040517f08c379a0000000000000000000000000000000000000000000000000000000008152600401611894906133ea565b60405180910390fd5b83826004018190555060018260000160006101000a81548160ff021916908360018111156118ce576118cd61279c565b5b02179055508160020160009054906101000a900473ffffffffffffffffffffffffffffffffffffffff1673ffffffffffffffffffffffffffffffffffffffff1663b7802a21336040518263ffffffff1660e01b8152600401611930919061340a565b600060405180830381600087803b15801561194a57600080fd5b505af115801561195e573d6000803e3d6000fd5b505050508160020160009054906101000a900473ffffffffffffffffffffffffffffffffffffffff1673ffffffffffffffffffffffffffffffffffffffff1663a22cb46582600160009054906101000a900460ff166040518363ffffffff1660e01b81526004016119d0929190613440565b600060405180830381600087803b1580156119ea57600080fd5b505af11580156119fe573d6000803e3d6000fd5b505050508160020160009054906101000a900473ffffffffffffffffffffffffffffffffffffffff1673ffffffffffffffffffffffffffffffffffffffff166323b872dd338385600301546040518463ffffffff1660e01b8152600401611a67939291906130f3565b600060405180830381600087803b158015611a8157600080fd5b505af1158015611a95573d6000803e3d6000fd5b505050507f02f7801340ef8b2973c684526dc6bf623adf2d6ef0dc90663ed3492fbb3a2f7f8260000160009054906101000a900460ff166002548460000160019054906101000a900473ffffffffffffffffffffffffffffffffffffffff16338660020160009054906101000a900473ffffffffffffffffffffffffffffffffffffffff1687600301548860040154896005018a600601604051611b41999897969594939291906131ce565b60405180910390a15050505050565b3373ffffffffffffffffffffffffffffffffffffffff168273ffffffffffffffffffffffffffffffffffffffff16636352211e836040518263ffffffff1660e01b8152600401611ba091906132d5565b602060405180830381865afa158015611bbd573d6000803e3d6000fd5b505050506040513d601f19601f82011682018060405250810190611be19190613305565b73ffffffffffffffffffffffffffffffffffffffff1614611c37576040517f08c379a0000000000000000000000000000000000000000000000000000000008152600401611c2e906134b5565b60405180910390fd5b60008273ffffffffffffffffffffffffffffffffffffffff166306fdde036040518163ffffffff1660e01b8152600401600060405180830381865afa158015611c84573d6000803e3d6000fd5b505050506040513d6000823e3d601f19601f82011682018060405250810190611cad91906135f6565b905060008373ffffffffffffffffffffffffffffffffffffffff1663c87b56dd846040518263ffffffff1660e01b8152600401611cea91906132d5565b600060405180830381865afa158015611d07573d6000803e3d6000fd5b505050506040513d6000823e3d601f19601f82011682018060405250810190611d3091906135f6565b9050600060405180610100016040528060006001811115611d5457611d5361279c565b5b81526020013373ffffffffffffffffffffffffffffffffffffffff1681526020013373ffffffffffffffffffffffffffffffffffffffff1681526020018673ffffffffffffffffffffffffffffffffffffffff168152602001858152602001600354815260200184815260200183815250905060026000815480929190611dda9061308d565b91905055508060056000600254815260200190815260200160002060008201518160000160006101000a81548160ff02191690836001811115611e2057611e1f61279c565b5b021790555060208201518160000160016101000a81548173ffffffffffffffffffffffffffffffffffffffff021916908373ffffffffffffffffffffffffffffffffffffffff16021790555060408201518160010160006101000a81548173ffffffffffffffffffffffffffffffffffffffff021916908373ffffffffffffffffffffffffffffffffffffffff16021790555060608201518160020160006101000a81548173ffffffffffffffffffffffffffffffffffffffff021916908373ffffffffffffffffffffffffffffffffffffffff1602179055506080820151816003015560a0820151816004015560c0820151816005019080519060200190611f2a929190612682565b5060e0820151816006019080519060200190611f47929190612682565b509050507fa115481c0f899c55f9ca16916712955696982e4ce7400c0f4e8159e5b92e29ca8160000151600254333389898989604051611f8e989796959493929190613678565b60405180910390a15050505050565b6060600660008373ffffffffffffffffffffffffffffffffffffffff1673ffffffffffffffffffffffffffffffffffffffff16815260200190815260200160002080548060200260200160405190810160405280929190818152602001828054801561205e57602002820191906000526020600020905b8160009054906101000a900473ffffffffffffffffffffffffffffffffffffffff1673ffffffffffffffffffffffffffffffffffffffff1681526020019060010190808311612014575b50505050509050919050565b60006008905060003390506000600460009054906101000a900473ffffffffffffffffffffffffffffffffffffffff1673ffffffffffffffffffffffffffffffffffffffff1663bb1bd10b848c8c8c8c8c8c306040518963ffffffff1660e01b81526004016120e0989796959493929190613740565b6020604051808303816000875af11580156120ff573d6000803e3d6000fd5b505050506040513d601f19601f820116820180604052508101906121239190613305565b9050600660003373ffffffffffffffffffffffffffffffffffffffff1673ffffffffffffffffffffffffffffffffffffffff168152602001908152602001600020819080600181540180825580915050600190039060005260206000200160009091909190916101000a81548173ffffffffffffffffffffffffffffffffffffffff021916908373ffffffffffffffffffffffffffffffffffffffff16021790555060005b848110156122e25760008273ffffffffffffffffffffffffffffffffffffffff16636a627842856040518263ffffffff1660e01b815260040161220b919061340a565b6020604051808303816000875af115801561222a573d6000803e3d6000fd5b505050506040513d601f19601f8201168201806040525081019061224e91906137c3565b905061225a8382611b50565b60076000828152602001908152602001600020339080600181540180825580915050600190039060005260206000200160009091909190916101000a81548173ffffffffffffffffffffffffffffffffffffffff021916908373ffffffffffffffffffffffffffffffffffffffff1602179055505080806122da9061308d565b9150506121c8565b5050505050505050505050565b60008173ffffffffffffffffffffffffffffffffffffffff16636a627842336040518263ffffffff1660e01b815260040161232a919061340a565b6020604051808303816000875af1158015612349573d6000803e3d6000fd5b505050506040513d601f19601f8201168201806040525081019061236d91906137c3565b90506123798282611b50565b5050565b6060600860008373ffffffffffffffffffffffffffffffffffffffff1673ffffffffffffffffffffffffffffffffffffffff168152602001908152602001600020805480602002602001604051908101604052809291908181526020016000905b8282101561259e57838290600052602060002090600502016040518060a00160405290816000820160009054906101000a900473ffffffffffffffffffffffffffffffffffffffff1673ffffffffffffffffffffffffffffffffffffffff1673ffffffffffffffffffffffffffffffffffffffff1681526020016001820154815260200160028201805461247190612e3d565b80601f016020809104026020016040519081016040528092919081815260200182805461249d90612e3d565b80156124ea5780601f106124bf576101008083540402835291602001916124ea565b820191906000526020600020905b8154815290600101906020018083116124cd57829003601f168201915b5050505050815260200160038201805461250390612e3d565b80601f016020809104026020016040519081016040528092919081815260200182805461252f90612e3d565b801561257c5780601f106125515761010080835404028352916020019161257c565b820191906000526020600020905b81548152906001019060200180831161255f57829003601f168201915b50505050508152602001600482015481525050815260200190600101906123de565b505050509050919050565b604051806101000160405280600060018111156125c9576125c861279c565b5b8152602001600073ffffffffffffffffffffffffffffffffffffffff168152602001600073ffffffffffffffffffffffffffffffffffffffff168152602001600073ffffffffffffffffffffffffffffffffffffffff168152602001600081526020016000815260200160608152602001606081525090565b50805461264e90612e3d565b6000825580601f10612660575061267f565b601f01602090049060005260206000209081019061267e9190612708565b5b50565b82805461268e90612e3d565b90600052602060002090601f0160209004810192826126b057600085556126f7565b82601f106126c957805160ff19168380011785556126f7565b828001600101855582156126f7579182015b828111156126f65782518255916020019190600101906126db565b5b5090506127049190612708565b5090565b5b80821115612721576000816000905550600101612709565b5090565b6000604051905090565b600080fd5b600080fd5b6000819050919050565b61274c81612739565b811461275757600080fd5b50565b60008135905061276981612743565b92915050565b6000602082840312156127855761278461272f565b5b60006127938482850161275a565b91505092915050565b7f4e487b7100000000000000000000000000000000000000000000000000000000600052602160045260246000fd5b600281106127dc576127db61279c565b5b50565b60008190506127ed826127cb565b919050565b60006127fd826127df565b9050919050565b61280d816127f2565b82525050565b600073ffffffffffffffffffffffffffffffffffffffff82169050919050565b600061283e82612813565b9050919050565b61284e81612833565b82525050565b61285d81612739565b82525050565b600081519050919050565b600082825260208201905092915050565b60005b8381101561289d578082015181840152602081019050612882565b838111156128ac576000848401525b50505050565b6000601f19601f8301169050919050565b60006128ce82612863565b6128d8818561286e565b93506128e881856020860161287f565b6128f1816128b2565b840191505092915050565b6000610100830160008301516129156000860182612804565b5060208301516129286020860182612845565b50604083015161293b6040860182612845565b50606083015161294e6060860182612845565b5060808301516129616080860182612854565b5060a083015161297460a0860182612854565b5060c083015184820360c086015261298c82826128c3565b91505060e083015184820360e08601526129a682826128c3565b9150508091505092915050565b600060208201905081810360008301526129cd81846128fc565b905092915050565b600081519050919050565b600082825260208201905092915050565b6000819050602082019050919050565b6000612a0d8383612845565b60208301905092915050565b6000602082019050919050565b6000612a31826129d5565b612a3b81856129e0565b9350612a46836129f1565b8060005b83811015612a77578151612a5e8882612a01565b9750612a6983612a19565b925050600181019050612a4a565b5085935050505092915050565b60006020820190508181036000830152612a9e8184612a26565b905092915050565b60008060408385031215612abd57612abc61272f565b5b6000612acb8582860161275a565b9250506020612adc8582860161275a565b9150509250929050565b612aef81612833565b8114612afa57600080fd5b50565b600081359050612b0c81612ae6565b92915050565b60008060408385031215612b2957612b2861272f565b5b6000612b3785828601612afd565b9250506020612b488582860161275a565b9150509250929050565b600060208284031215612b6857612b6761272f565b5b6000612b7684828501612afd565b91505092915050565b600080fd5b600080fd5b600080fd5b60008083601f840112612ba457612ba3612b7f565b5b8235905067ffffffffffffffff811115612bc157612bc0612b84565b5b602083019150836001820283011115612bdd57612bdc612b89565b5b9250929050565b60008060008060008060006080888a031215612c0357612c0261272f565b5b600088013567ffffffffffffffff811115612c2157612c20612734565b5b612c2d8a828b01612b8e565b9750975050602088013567ffffffffffffffff811115612c5057612c4f612734565b5b612c5c8a828b01612b8e565b9550955050604088013567ffffffffffffffff811115612c7f57612c7e612734565b5b612c8b8a828b01612b8e565b93509350506060612c9e8a828b0161275a565b91505092959891949750929550565b600081519050919050565b600082825260208201905092915050565b6000819050602082019050919050565b600060a083016000830151612cf16000860182612845565b506020830151612d046020860182612854565b5060408301518482036040860152612d1c82826128c3565b91505060608301518482036060860152612d3682826128c3565b9150506080830151612d4b6080860182612854565b508091505092915050565b6000612d628383612cd9565b905092915050565b6000602082019050919050565b6000612d8282612cad565b612d8c8185612cb8565b935083602082028501612d9e85612cc9565b8060005b85811015612dda5784840389528151612dbb8582612d56565b9450612dc683612d6a565b925060208a01995050600181019050612da2565b50829750879550505050505092915050565b60006020820190508181036000830152612e068184612d77565b905092915050565b7f4e487b7100000000000000000000000000000000000000000000000000000000600052602260045260246000fd5b60006002820490506001821680612e5557607f821691505b602082108103612e6857612e67612e0e565b5b50919050565b600082825260208201905092915050565b7f496e7365727420612076616c6964206c697374696e6749640000000000000000600082015250565b6000612eb5601883612e6e565b9150612ec082612e7f565b602082019050919050565b60006020820190508181036000830152612ee481612ea8565b9050919050565b7f4c697374696e67206973206e6f74206163746976650000000000000000000000600082015250565b6000612f21601583612e6e565b9150612f2c82612eeb565b602082019050919050565b60006020820190508181036000830152612f5081612f14565b9050919050565b7f73656c6c65722063616e6e6f7420626520627579657200000000000000000000600082015250565b6000612f8d601683612e6e565b9150612f9882612f57565b602082019050919050565b60006020820190508181036000830152612fbc81612f80565b9050919050565b7f496e737566696369656e7420616d6f756e740000000000000000000000000000600082015250565b6000612ff9601283612e6e565b915061300482612fc3565b602082019050919050565b6000602082019050818103600083015261302881612fec565b9050919050565b7f4e487b7100000000000000000000000000000000000000000000000000000000600052603260045260246000fd5b7f4e487b7100000000000000000000000000000000000000000000000000000000600052601160045260246000fd5b600061309882612739565b91507fffffffffffffffffffffffffffffffffffffffffffffffffffffffffffffffff82036130ca576130c961305e565b5b600182019050919050565b6130de81612833565b82525050565b6130ed81612739565b82525050565b600060608201905061310860008301866130d5565b61311560208301856130d5565b61312260408301846130e4565b949350505050565b613133816127f2565b82525050565b60008190508160005260206000209050919050565b6000815461315b81612e3d565b6131658186612e6e565b945060018216600081146131805760018114613192576131c5565b60ff19831686526020860193506131c5565b61319b85613139565b60005b838110156131bd5781548189015260018201915060208101905061319e565b808801955050505b50505092915050565b6000610120820190506131e4600083018c61312a565b6131f1602083018b6130e4565b6131fe604083018a6130d5565b61320b60608301896130d5565b61321860808301886130d5565b61322560a08301876130e4565b61323260c08301866130e4565b81810360e0830152613244818561314e565b9050818103610100830152613259818461314e565b90509a9950505050505050505050565b7f4f6e6c792073656c6c65722063616e2063616e63656c206c697374696e670000600082015250565b600061329f601e83612e6e565b91506132aa82613269565b602082019050919050565b600060208201905081810360008301526132ce81613292565b9050919050565b60006020820190506132ea60008301846130e4565b92915050565b6000815190506132ff81612ae6565b92915050565b60006020828403121561331b5761331a61272f565b5b6000613329848285016132f0565b91505092915050565b7f596f7520617265206e6f7420746865206f776e65720000000000000000000000600082015250565b6000613368601583612e6e565b915061337382613332565b602082019050919050565b600060208201905081810360008301526133978161335b565b9050919050565b7f546865204e465420697320616c726561647920746f2073656c6c2e0000000000600082015250565b60006133d4601b83612e6e565b91506133df8261339e565b602082019050919050565b60006020820190508181036000830152613403816133c7565b9050919050565b600060208201905061341f60008301846130d5565b92915050565b60008115159050919050565b61343a81613425565b82525050565b600060408201905061345560008301856130d5565b6134626020830184613431565b9392505050565b7f43616c6c6572206973206e6f742074686520746f6b656e206f776e6572000000600082015250565b600061349f601d83612e6e565b91506134aa82613469565b602082019050919050565b600060208201905081810360008301526134ce81613492565b9050919050565b600080fd5b7f4e487b7100000000000000000000000000000000000000000000000000000000600052604160045260246000fd5b613512826128b2565b810181811067ffffffffffffffff82111715613531576135306134da565b5b80604052505050565b6000613544612725565b90506135508282613509565b919050565b600067ffffffffffffffff8211156135705761356f6134da565b5b613579826128b2565b9050602081019050919050565b600061359961359484613555565b61353a565b9050828152602081018484840111156135b5576135b46134d5565b5b6135c084828561287f565b509392505050565b600082601f8301126135dd576135dc612b7f565b5b81516135ed848260208601613586565b91505092915050565b60006020828403121561360c5761360b61272f565b5b600082015167ffffffffffffffff81111561362a57613629612734565b5b613636848285016135c8565b91505092915050565b600061364a82612863565b6136548185612e6e565b935061366481856020860161287f565b61366d816128b2565b840191505092915050565b60006101008201905061368e600083018b61312a565b61369b602083018a6130e4565b6136a860408301896130d5565b6136b560608301886130d5565b6136c260808301876130d5565b6136cf60a08301866130e4565b81810360c08301526136e1818561363f565b905081810360e08301526136f5818461363f565b90509998505050505050505050565b82818337600083830152505050565b600061371f8385612e6e565b935061372c838584613704565b613735836128b2565b840190509392505050565b600060a082019050613755600083018b6130e4565b818103602083015261376881898b613713565b9050818103604083015261377d818789613713565b90508181036060830152613792818587613713565b90506137a160808301846130d5565b9998505050505050505050565b6000815190506137bd81612743565b92915050565b6000602082840312156137d9576137d861272f565b5b60006137e7848285016137ae565b9150509291505056fea2646970667358221220bb081dd5c10c869ed36d0949452e9cf572fd290972635062e97aa480f90a7f4864736f6c634300080e0033",
  "immutableReferences": {},
  "source": "// SPDX-License-Identifier: MIT\npragma solidity 0.8.14;\n\nimport \"./NFTFactory.sol\";\nimport \"./MyNFT.sol\";\n\n/// @title A NFT marketplace example\n/// @author JWMatheo - member of NFTSet Team\n/// @notice You can use this contract in order to build a marketplace Dapp\n/// @dev NFT marketplace contract. You need to deploy FactoryV3.sol first and implement the Factory address.\ncontract Marketplace {\n    enum ListingStatus {\n        Showable,\n        Active\n    }\n\n    struct Listing {\n        ListingStatus status;\n        address Creator;\n        address seller;\n        address tokenContract;\n        uint256 tokenId;\n        uint256 price;\n        string collection;\n        string JSONTokenURI;\n    }\n    struct MyBuyedNFT {\n        address tokenContract;\n        uint256 tokenId;\n        string collection;\n        string JSONTokenURI;\n        uint256 myindex;\n    }\n\n    event Showed(\n        ListingStatus status,\n        uint256 listingId,\n        address Creator,\n        address seller,\n        address token,\n        uint256 tokenId,\n        string collection,\n        string JSONTokenURI\n    );\n\n    event Listed(\n        ListingStatus status,\n        uint256 listingId,\n        address Creator,\n        address seller,\n        address token,\n        uint256 tokenId,\n        uint256 price,\n        string collection,\n        string JSONTokenURI\n    );\n\n    event Buyed(\n        ListingStatus status,\n        uint256 listingId,\n        address Creator,\n        address seller,\n        address token,\n        uint256 tokenId,\n        uint256 price,\n        string collection,\n        string JSONTokenURI\n    );\n\n    event Cancelled(\n        ListingStatus status,\n        uint256 listingId,\n        address Creator,\n        address seller,\n        address token,\n        uint256 tokenId,\n        uint256 price,\n        string collection,\n        string JSONTokenURI\n    );\n\n    uint256 private _buyedTokenCounter;\n    bool _forApproved = true;\n    uint256 private _listingId = 0;\n    uint256 private _defaultPrice = 1000 ether;\n    address private _factoryAddress;\n    mapping(uint256 => Listing) private _listings;\n    mapping(address => address[]) CollectionsOfOwner; // stocke les collections crer par une addresse\n    mapping(uint256 => address[]) SellActivty; // stocke pour 1 NFT donn, la liste des addresses ayant ete en possesion du nft\n    mapping(address => MyBuyedNFT[]) ListOfNFTfromUser; // stocke Uniquement les NFT achets.\n\n    constructor(address factoryAdress) {\n        _factoryAddress = factoryAdress;\n    }\n\n    /**\n     * @notice Get the structure for a listed NFT.\n     * @dev  Get the structure from mapping a listed NFT Id.\n     * @param listingId The listed NFT Id to check.\n     * @return Listing structure of the entered listed NFT Id.\n     */\n    function getListing(uint256 listingId)\n        public\n        view\n        returns (Listing memory)\n    {\n        return _listings[listingId];\n    }\n\n    /**\n     * @notice Get all collection address created of an address.\n     * @dev  Get an array wich contains all collection address created for a given address.\n     * @param _yourAddress The address to check.\n     * @return address[] The array which contains all colection address.\n     */\n    function getUserCollections(address _yourAddress)\n        public\n        view\n        returns (address[] memory)\n    {\n        return CollectionsOfOwner[_yourAddress];\n    }\n\n    /**\n     * @notice Get sells activities from a NFT.\n     * @dev  Get an array wich contains all addresses having been in possession of the listed nft.\n     * @param listingId The listed NFT Id to check.\n     * @return address[] The array which contains all addresses having been in possession of the listed nft.\n     */\n    function getSellActivity(uint256 listingId)\n        public\n        view\n        returns (address[] memory)\n    {\n        Listing memory listing = _listings[listingId];\n        return SellActivty[listing.tokenId];\n    }\n\n    /**\n     * @notice Get all the NFT purchased and currently owned.\n     * @dev  Get an array wich contains a structure for each NFT purchased && currently owned.\n     * @param _youraddress The address to check.\n     * @return MyBuyedNFT[] The array wich contains a structure for each NFT purchased && currently owned.\n     */\n    function getListOfNFTfromUser(address _youraddress)\n        public\n        view\n        returns (MyBuyedNFT[] memory)\n    {\n        return ListOfNFTfromUser[_youraddress];\n    }\n\n    /**\n     * @dev Verify that the listedId '_thelistingId' exist.\n     *\n     * Requirements:\n     *\n     * - Insert an existing listed NFT Id '_thelistingId'\n     */\n    modifier isListingExist(uint256 _thelistingId) {\n        require(\n            _listings[_thelistingId].tokenContract != address(0),\n            \"Insert a valid listingId\"\n        );\n        _;\n    }\n\n    /**\n     * @notice Make your NFT appear in the marketplace.\n     * @dev Create a 'Listing' structure to make your NFT appear in the marketplace.\n     * '_defaultPrice' in 'Listing' is set to prevent a potentially vulnerability attack.\n     *\n     * Requirements:\n     *\n     * - 'msg.sender' is the owner of the tokenId '_tokenId' at address '_tokenContract'\n     *\n     * Emits a {Showed} event.\n     */\n    function showToken(address _tokenContract, uint256 _tokenId) public {\n        require(\n            ERC721(_tokenContract).ownerOf((_tokenId)) == msg.sender,\n            \"Caller is not the token owner\"\n        );\n        string memory _collectionName = ERC721(_tokenContract).name();\n        string memory _JSONTokenURI = MyNFT(_tokenContract).tokenURI(_tokenId);\n        Listing memory listing = Listing(\n            ListingStatus.Showable,\n            msg.sender,\n            msg.sender,\n            _tokenContract,\n            _tokenId,\n            _defaultPrice,\n            _collectionName,\n            _JSONTokenURI\n        );\n\n        _listingId++;\n        _listings[_listingId] = listing;\n        emit Showed(\n            listing.status,\n            _listingId,\n            msg.sender,\n            msg.sender,\n            _tokenContract,\n            _tokenId,\n            _collectionName,\n            _JSONTokenURI\n        );\n    }\n\n    /**\n     * @notice List to sale your NFT in the marketplace.\n     * @dev Set a price and status to make the NFT buyable then transfer the NFT to the marketplace.\n     *\n     * Requirements:\n     *\n     * - 'msg.sender' is the owner of the tokenId 'listing.tokenId' at address 'listing.tokenContract'\n     * - The Nft is not already listed to sale\n     *\n     * Emits a {Listed} event.\n     */\n    function listToken(uint256 listingId, uint256 _price)\n        external\n        isListingExist(listingId)\n    {\n        Listing storage listing = _listings[listingId];\n        address testadress = address(this);\n        require(\n            ERC721(listing.tokenContract).ownerOf((listing.tokenId)) ==\n                msg.sender,\n            \"You are not the owner\"\n        );\n        require(\n            listing.status == ListingStatus.Showable,\n            \"The NFT is already to sell.\"\n        );\n\n        listing.price = _price;\n        listing.status = ListingStatus.Active;\n        MyNFT(listing.tokenContract)\n            .setAddressToMsgSenderOfListTokenFromMarketPlaceContract(\n                msg.sender\n            );\n        ERC721(listing.tokenContract).setApprovalForAll(\n            testadress,\n            _forApproved\n        );\n        IERC721(listing.tokenContract).transferFrom(\n            msg.sender,\n            testadress,\n            listing.tokenId\n        );\n\n        emit Listed(\n            listing.status,\n            _listingId,\n            listing.Creator,\n            msg.sender,\n            listing.tokenContract,\n            listing.tokenId,\n            listing.price,\n            listing.collection,\n            listing.JSONTokenURI\n        );\n    }\n\n    /**\n     * @notice Buy a Nft.\n     * @dev Buy NFT function. Transfer the NFT to the msg.sender.\n     *\n     * Requirements:\n     *\n     * - The Nft is listed to sale,\n     * - Cannot buy your own NFT.\n     * - Send the good amount.\n     *\n     * Emits a {Buyed} event.\n     */\n    function buyToken(uint256 listingId)\n        external\n        payable\n        isListingExist(listingId)\n    {\n        Listing storage listing = _listings[listingId];\n        uint256 lengthOfListOfNFTfromUser = ListOfNFTfromUser[listing.seller]\n            .length;\n        require(\n            listing.status == ListingStatus.Active,\n            \"Listing is not active\"\n        );\n        require(msg.sender != listing.seller, \"seller cannot be buyer\");\n        require(msg.value == listing.price, \"Insuficient amount\");\n        // Pour le front si listing.tokenContract = address(0) alors pas afficher else afficher\n        /**\n         * @dev If Creator is the seller it doesn't delete 'MyBuyedNFT' structure beacause it doesn't exist.\n         */\n        if (listing.seller != listing.Creator) {\n            uint256 indexOfDeletedNFT;\n            for (uint256 i = 0; i < lengthOfListOfNFTfromUser; i++) {\n                if (\n                    listing.tokenContract ==\n                    ListOfNFTfromUser[listing.seller][i].tokenContract &&\n                    listing.tokenId ==\n                    ListOfNFTfromUser[listing.seller][i].tokenId\n                ) {\n                    indexOfDeletedNFT = i;\n                    break;\n                }\n            }\n            delete ListOfNFTfromUser[listing.seller][indexOfDeletedNFT];\n        }\n\n        payable(listing.seller).transfer(listing.price);\n        IERC721(listing.tokenContract).transferFrom(\n            address(this),\n            msg.sender,\n            listing.tokenId\n        );\n\n        listing.status = ListingStatus.Showable;\n        listing.seller = msg.sender;\n        listing.price = _defaultPrice;\n        SellActivty[listing.tokenId].push(msg.sender);\n        ListOfNFTfromUser[msg.sender].push(\n            MyBuyedNFT(\n                listing.tokenContract,\n                listing.tokenId,\n                listing.collection,\n                listing.JSONTokenURI,\n                lengthOfListOfNFTfromUser\n            )\n        );\n\n        emit Buyed(\n            listing.status,\n            listingId,\n            listing.Creator,\n            listing.seller,\n            listing.tokenContract,\n            listing.tokenId,\n            listing.price,\n            listing.collection,\n            listing.JSONTokenURI\n        );\n    }\n\n    /**\n     * @notice Cancel a listed to sale NFT.\n     * @dev Cancel a listed to sale NFT. Transfer back the NFT from Marketplace to the msg.sender.\n     *\n     * Requirements:\n     *\n     * - Only seller can cancel listing,\n     * - The NFT is listed to sale.\n     *\n     * Emits a {Cancelled} event.\n     */\n    function cancel(uint256 listingId)\n        public\n        payable\n        isListingExist(listingId)\n    {\n        Listing storage listing = _listings[listingId];\n\n        require(msg.sender == listing.seller, \"Only seller can cancel listing\");\n        require(\n            listing.status == ListingStatus.Active,\n            \"Listing is not active\"\n        );\n\n        listing.status = ListingStatus.Showable;\n\n        IERC721(listing.tokenContract).transferFrom(\n            address(this),\n            msg.sender,\n            listing.tokenId\n        );\n\n        emit Cancelled(\n            listing.status,\n            listingId,\n            listing.Creator,\n            msg.sender,\n            listing.tokenContract,\n            listing.tokenId,\n            listing.price,\n            listing.collection,\n            listing.JSONTokenURI\n        );\n    }\n\n    /**\n     * @notice Deploy a NFT collection.\n     * @dev Deploy a NFT collection . Can be impove by letting user set his own _salt.\n     *\n     *\n     * Emits a {Showed} event.\n     */\n    function DeployMyNFTCollection(\n        string calldata _Collectionname,\n        string calldata _Collectionsymbol,\n        string calldata _CollectionBaseUri,\n        uint256 _NumberOfNftToMint\n    ) public payable {\n        uint256 _salt = 8;\n        address ownerOfNFTContratIs = msg.sender;\n        address _addressCollection = NFTFactory(_factoryAddress).DeployYourNFT(\n            _salt,\n            _Collectionname,\n            _Collectionsymbol,\n            _CollectionBaseUri,\n            address(this)\n        );\n        CollectionsOfOwner[msg.sender].push(_addressCollection);\n        for (uint256 i = 0; i < _NumberOfNftToMint; i++) {\n            uint256 _tokenId = MyNFT(_addressCollection).mint(\n                ownerOfNFTContratIs\n            );\n            showToken(_addressCollection, _tokenId);\n            SellActivty[_tokenId].push(msg.sender);\n        }\n    }\n\n    /**\n     * @notice Add a NFT to an existing collection.\n     * @dev  Triggers 'mint' function in the collection address '_thisCollection'.\n     * @param _thisCollection The collection address in wich the nft is added.\n     */\n    // _thisCollection provient du frontend en faisant un getUserCollections(msg.sender).call() puis pour chaque collection retourner : MyNFT(_addresseSelectionne).name() pour afficher le nom des collection sur l'interface et recuper l'addresse selctionn par l'user\n    function addItemToCollection(address _thisCollection) public {\n        uint256 _tokenId = MyNFT(_thisCollection).mint(msg.sender);\n        showToken(_thisCollection, _tokenId);\n    }\n}\n",
  "sourcePath": "/Users/mamadouseck/Desktop/Development/Courses/Alyra/Projects/NFT/truffle/contracts/MarketplaceV4.sol",
  "compiler": {
    "name": "solc",
    "version": "0.8.14+commit.80d49f37.Emscripten.clang"
  },
  "schemaVersion": "3.4.7",
  "updatedAt": "2022-05-27T11:06:51.676Z",
  "networkType": "ethereum",
  "devdoc": {
    "author": "JWMatheo - member of NFTSet Team",
    "details": "NFT marketplace contract. You need to deploy FactoryV3.sol first and implement the Factory address.",
    "kind": "dev",
    "methods": {
      "DeployMyNFTCollection(string,string,string,uint256)": {
        "details": "Deploy a NFT collection . Can be impove by letting user set his own _salt. Emits a {Showed} event."
      },
      "addItemToCollection(address)": {
        "details": "Triggers 'mint' function in the collection address '_thisCollection'.",
        "params": {
          "_thisCollection": "The collection address in wich the nft is added."
        }
      },
      "buyToken(uint256)": {
        "details": "Buy NFT function. Transfer the NFT to the msg.sender. Requirements: - The Nft is listed to sale, - Cannot buy your own NFT. - Send the good amount. Emits a {Buyed} event."
      },
      "cancel(uint256)": {
        "details": "Cancel a listed to sale NFT. Transfer back the NFT from Marketplace to the msg.sender. Requirements: - Only seller can cancel listing, - The NFT is listed to sale. Emits a {Cancelled} event."
      },
      "getListOfNFTfromUser(address)": {
        "details": "Get an array wich contains a structure for each NFT purchased && currently owned.",
        "params": {
          "_youraddress": "The address to check."
        },
        "returns": {
          "_0": "MyBuyedNFT[] The array wich contains a structure for each NFT purchased && currently owned."
        }
      },
      "getListing(uint256)": {
        "details": "Get the structure from mapping a listed NFT Id.",
        "params": {
          "listingId": "The listed NFT Id to check."
        },
        "returns": {
          "_0": "Listing structure of the entered listed NFT Id."
        }
      },
      "getSellActivity(uint256)": {
        "details": "Get an array wich contains all addresses having been in possession of the listed nft.",
        "params": {
          "listingId": "The listed NFT Id to check."
        },
        "returns": {
          "_0": "address[] The array which contains all addresses having been in possession of the listed nft."
        }
      },
      "getUserCollections(address)": {
        "details": "Get an array wich contains all collection address created for a given address.",
        "params": {
          "_yourAddress": "The address to check."
        },
        "returns": {
          "_0": "address[] The array which contains all colection address."
        }
      },
      "listToken(uint256,uint256)": {
        "details": "Set a price and status to make the NFT buyable then transfer the NFT to the marketplace. Requirements: - 'msg.sender' is the owner of the tokenId 'listing.tokenId' at address 'listing.tokenContract' - The Nft is not already listed to sale Emits a {Listed} event."
      },
      "showToken(address,uint256)": {
        "details": "Create a 'Listing' structure to make your NFT appear in the marketplace. '_defaultPrice' in 'Listing' is set to prevent a potentially vulnerability attack. Requirements: - 'msg.sender' is the owner of the tokenId '_tokenId' at address '_tokenContract' Emits a {Showed} event."
      }
    },
    "title": "A NFT marketplace example",
    "version": 1
  },
  "userdoc": {
    "kind": "user",
    "methods": {
      "DeployMyNFTCollection(string,string,string,uint256)": {
        "notice": "Deploy a NFT collection."
      },
      "addItemToCollection(address)": {
        "notice": "Add a NFT to an existing collection."
      },
      "buyToken(uint256)": {
        "notice": "Buy a Nft."
      },
      "cancel(uint256)": {
        "notice": "Cancel a listed to sale NFT."
      },
      "getListOfNFTfromUser(address)": {
        "notice": "Get all the NFT purchased and currently owned."
      },
      "getListing(uint256)": {
        "notice": "Get the structure for a listed NFT."
      },
      "getSellActivity(uint256)": {
        "notice": "Get sells activities from a NFT."
      },
      "getUserCollections(address)": {
        "notice": "Get all collection address created of an address."
      },
      "listToken(uint256,uint256)": {
        "notice": "List to sale your NFT in the marketplace."
      },
      "showToken(address,uint256)": {
        "notice": "Make your NFT appear in the marketplace."
      }
    },
    "notice": "You can use this contract in order to build a marketplace Dapp",
    "version": 1
  }
}