{
  "contractName": "Marketplace",
  "abi": [
    {
      "anonymous": false,
      "inputs": [
        {
          "indexed": false,
          "internalType": "enum Marketplace.ListingStatus",
          "name": "status",
          "type": "uint8"
        },
        {
          "indexed": false,
          "internalType": "uint256",
          "name": "listingId",
          "type": "uint256"
        },
        {
          "indexed": false,
          "internalType": "address",
          "name": "Creator",
          "type": "address"
        },
        {
          "indexed": false,
          "internalType": "address",
          "name": "seller",
          "type": "address"
        },
        {
          "indexed": false,
          "internalType": "address",
          "name": "token",
          "type": "address"
        },
        {
          "indexed": false,
          "internalType": "uint256",
          "name": "tokenId",
          "type": "uint256"
        },
        {
          "indexed": false,
          "internalType": "uint256",
          "name": "price",
          "type": "uint256"
        },
        {
          "indexed": false,
          "internalType": "string",
          "name": "collection",
          "type": "string"
        },
        {
          "indexed": false,
          "internalType": "string",
          "name": "JSONTokenURI",
          "type": "string"
        }
      ],
      "name": "Buyed",
      "type": "event"
    },
    {
      "anonymous": false,
      "inputs": [
        {
          "indexed": false,
          "internalType": "enum Marketplace.ListingStatus",
          "name": "status",
          "type": "uint8"
        },
        {
          "indexed": false,
          "internalType": "uint256",
          "name": "listingId",
          "type": "uint256"
        },
        {
          "indexed": false,
          "internalType": "address",
          "name": "Creator",
          "type": "address"
        },
        {
          "indexed": false,
          "internalType": "address",
          "name": "seller",
          "type": "address"
        },
        {
          "indexed": false,
          "internalType": "address",
          "name": "token",
          "type": "address"
        },
        {
          "indexed": false,
          "internalType": "uint256",
          "name": "tokenId",
          "type": "uint256"
        },
        {
          "indexed": false,
          "internalType": "uint256",
          "name": "price",
          "type": "uint256"
        },
        {
          "indexed": false,
          "internalType": "string",
          "name": "collection",
          "type": "string"
        },
        {
          "indexed": false,
          "internalType": "string",
          "name": "JSONTokenURI",
          "type": "string"
        }
      ],
      "name": "Cancelled",
      "type": "event"
    },
    {
      "anonymous": false,
      "inputs": [
        {
          "indexed": false,
          "internalType": "enum Marketplace.ListingStatus",
          "name": "status",
          "type": "uint8"
        },
        {
          "indexed": false,
          "internalType": "uint256",
          "name": "listingId",
          "type": "uint256"
        },
        {
          "indexed": false,
          "internalType": "address",
          "name": "Creator",
          "type": "address"
        },
        {
          "indexed": false,
          "internalType": "address",
          "name": "seller",
          "type": "address"
        },
        {
          "indexed": false,
          "internalType": "address",
          "name": "token",
          "type": "address"
        },
        {
          "indexed": false,
          "internalType": "uint256",
          "name": "tokenId",
          "type": "uint256"
        },
        {
          "indexed": false,
          "internalType": "uint256",
          "name": "price",
          "type": "uint256"
        },
        {
          "indexed": false,
          "internalType": "string",
          "name": "collection",
          "type": "string"
        },
        {
          "indexed": false,
          "internalType": "string",
          "name": "JSONTokenURI",
          "type": "string"
        }
      ],
      "name": "Listed",
      "type": "event"
    },
    {
      "anonymous": false,
      "inputs": [
        {
          "indexed": false,
          "internalType": "enum Marketplace.ListingStatus",
          "name": "status",
          "type": "uint8"
        },
        {
          "indexed": false,
          "internalType": "uint256",
          "name": "listingId",
          "type": "uint256"
        },
        {
          "indexed": false,
          "internalType": "address",
          "name": "Creator",
          "type": "address"
        },
        {
          "indexed": false,
          "internalType": "address",
          "name": "seller",
          "type": "address"
        },
        {
          "indexed": false,
          "internalType": "address",
          "name": "token",
          "type": "address"
        },
        {
          "indexed": false,
          "internalType": "uint256",
          "name": "tokenId",
          "type": "uint256"
        },
        {
          "indexed": false,
          "internalType": "string",
          "name": "collection",
          "type": "string"
        },
        {
          "indexed": false,
          "internalType": "string",
          "name": "JSONTokenURI",
          "type": "string"
        }
      ],
      "name": "Showed",
      "type": "event"
    },
    {
      "inputs": [
        {
          "internalType": "uint256",
          "name": "listingId",
          "type": "uint256"
        }
      ],
      "name": "getListing",
      "outputs": [
        {
          "components": [
            {
              "internalType": "enum Marketplace.ListingStatus",
              "name": "status",
              "type": "uint8"
            },
            {
              "internalType": "address",
              "name": "Creator",
              "type": "address"
            },
            {
              "internalType": "address",
              "name": "seller",
              "type": "address"
            },
            {
              "internalType": "address",
              "name": "tokenContract",
              "type": "address"
            },
            {
              "internalType": "uint256",
              "name": "tokenId",
              "type": "uint256"
            },
            {
              "internalType": "uint256",
              "name": "price",
              "type": "uint256"
            },
            {
              "internalType": "string",
              "name": "collection",
              "type": "string"
            },
            {
              "internalType": "string",
              "name": "JSONTokenURI",
              "type": "string"
            }
          ],
          "internalType": "struct Marketplace.Listing",
          "name": "",
          "type": "tuple"
        }
      ],
      "stateMutability": "view",
      "type": "function",
      "constant": true
    },
    {
      "inputs": [
        {
          "internalType": "address",
          "name": "_yourAddress",
          "type": "address"
        }
      ],
      "name": "getUserCollections",
      "outputs": [
        {
          "internalType": "address[]",
          "name": "",
          "type": "address[]"
        }
      ],
      "stateMutability": "view",
      "type": "function",
      "constant": true
    },
    {
      "inputs": [
        {
          "internalType": "uint256",
          "name": "listingId",
          "type": "uint256"
        }
      ],
      "name": "getSellActivity",
      "outputs": [
        {
          "internalType": "address[]",
          "name": "",
          "type": "address[]"
        }
      ],
      "stateMutability": "view",
      "type": "function",
      "constant": true
    },
    {
      "inputs": [
        {
          "internalType": "address",
          "name": "_youraddress",
          "type": "address"
        }
      ],
      "name": "getListOfNFTfromUser",
      "outputs": [
        {
          "components": [
            {
              "internalType": "address",
              "name": "tokenContract",
              "type": "address"
            },
            {
              "internalType": "uint256",
              "name": "tokenId",
              "type": "uint256"
            },
            {
              "internalType": "string",
              "name": "collection",
              "type": "string"
            },
            {
              "internalType": "string",
              "name": "JSONTokenURI",
              "type": "string"
            },
            {
              "internalType": "uint256",
              "name": "myindex",
              "type": "uint256"
            }
          ],
          "internalType": "struct Marketplace.MyBuyedNFT[]",
          "name": "",
          "type": "tuple[]"
        }
      ],
      "stateMutability": "view",
      "type": "function",
      "constant": true
    },
    {
      "inputs": [
        {
          "internalType": "address",
          "name": "_thisCollection",
          "type": "address"
        }
      ],
      "name": "addItemToCollection",
      "outputs": [],
      "stateMutability": "nonpayable",
      "type": "function"
    },
    {
      "inputs": [
        {
          "internalType": "address",
          "name": "_tokenContract",
          "type": "address"
        },
        {
          "internalType": "uint256",
          "name": "_tokenId",
          "type": "uint256"
        }
      ],
      "name": "showToken",
      "outputs": [],
      "stateMutability": "nonpayable",
      "type": "function"
    },
    {
      "inputs": [
        {
          "internalType": "uint256",
          "name": "listingId",
          "type": "uint256"
        },
        {
          "internalType": "uint256",
          "name": "_price",
          "type": "uint256"
        }
      ],
      "name": "listToken",
      "outputs": [],
      "stateMutability": "nonpayable",
      "type": "function"
    },
    {
      "inputs": [
        {
          "internalType": "address",
          "name": "_precedentAcheteur",
          "type": "address"
        },
        {
          "internalType": "uint256",
          "name": "_indexOfDeletedItem",
          "type": "uint256"
        }
      ],
      "name": "deleteToken",
      "outputs": [
        {
          "components": [
            {
              "internalType": "address",
              "name": "tokenContract",
              "type": "address"
            },
            {
              "internalType": "uint256",
              "name": "tokenId",
              "type": "uint256"
            },
            {
              "internalType": "string",
              "name": "collection",
              "type": "string"
            },
            {
              "internalType": "string",
              "name": "JSONTokenURI",
              "type": "string"
            },
            {
              "internalType": "uint256",
              "name": "myindex",
              "type": "uint256"
            }
          ],
          "internalType": "struct Marketplace.MyBuyedNFT",
          "name": "",
          "type": "tuple"
        }
      ],
      "stateMutability": "view",
      "type": "function",
      "constant": true
    },
    {
      "inputs": [
        {
          "internalType": "uint256",
          "name": "listingId",
          "type": "uint256"
        }
      ],
      "name": "buyToken",
      "outputs": [],
      "stateMutability": "payable",
      "type": "function",
      "payable": true
    },
    {
      "inputs": [
        {
          "internalType": "uint256",
          "name": "listingId",
          "type": "uint256"
        }
      ],
      "name": "cancel",
      "outputs": [],
      "stateMutability": "payable",
      "type": "function",
      "payable": true
    },
    {
      "inputs": [
        {
          "internalType": "string",
          "name": "_Collectionname",
          "type": "string"
        },
        {
          "internalType": "string",
          "name": "_Collectionsymbol",
          "type": "string"
        },
        {
          "internalType": "string",
          "name": "_CollectionBaseUri",
          "type": "string"
        },
        {
          "internalType": "uint256",
          "name": "_NumberOfNftToMint",
          "type": "uint256"
        }
      ],
      "name": "DeployMyNFT",
      "outputs": [],
      "stateMutability": "payable",
      "type": "function",
      "payable": true
    }
  ],
  "bytecode": "0x608060405260018060006101000a81548160ff0219169083151502179055506000600255683635c9adc5dea000006003557363b3175d7ecd6d7ce09a0802efed20454ab9383c600460006101000a81548173ffffffffffffffffffffffffffffffffffffffff021916908373ffffffffffffffffffffffffffffffffffffffff16021790555034801561009157600080fd5b506138fa806100a16000396000f3fe60806040526004361061009c5760003560e01c806375c1631d1161006457806375c1631d1461016f5780637d2be151146101985780639aa5ad8c146101c15780639e265f96146101fe578063a299436b1461023b578063eea0bca6146102645761009c565b8063107a274a146100a157806317cdcadf146100de5780632d296bf1146100fa57806340e58ee5146101165780635df9f0b414610132575b600080fd5b3480156100ad57600080fd5b506100c860048036038101906100c39190612810565b6102a1565b6040516100d59190612a54565b60405180910390f35b6100f860048036038101906100f39190612adb565b610544565b005b610114600480360381019061010f9190612810565b6107c9565b005b610130600480360381019061012b9190612810565b611200565b005b34801561013e57600080fd5b5061015960048036038101906101549190612810565b611496565b6040516101669190612c53565b60405180910390f35b34801561017b57600080fd5b5061019660048036038101906101919190612c75565b6117d4565b005b3480156101a457600080fd5b506101bf60048036038101906101ba9190612ce1565b611c29565b005b3480156101cd57600080fd5b506101e860048036038101906101e39190612d21565b612076565b6040516101f59190612c53565b60405180910390f35b34801561020a57600080fd5b5061022560048036038101906102209190612ce1565b612143565b6040516102329190612dcb565b60405180910390f35b34801561024757600080fd5b50610262600480360381019061025d9190612d21565b61234b565b005b34801561027057600080fd5b5061028b60048036038101906102869190612d21565b6123d9565b6040516102989190612f2c565b60405180910390f35b6102a9612605565b60056000838152602001908152602001600020604051806101000160405290816000820160009054906101000a900460ff1660018111156102ed576102ec61283d565b5b60018111156102ff576102fe61283d565b5b81526020016000820160019054906101000a900473ffffffffffffffffffffffffffffffffffffffff1673ffffffffffffffffffffffffffffffffffffffff1673ffffffffffffffffffffffffffffffffffffffff1681526020016001820160009054906101000a900473ffffffffffffffffffffffffffffffffffffffff1673ffffffffffffffffffffffffffffffffffffffff1673ffffffffffffffffffffffffffffffffffffffff1681526020016002820160009054906101000a900473ffffffffffffffffffffffffffffffffffffffff1673ffffffffffffffffffffffffffffffffffffffff1673ffffffffffffffffffffffffffffffffffffffff168152602001600382015481526020016004820154815260200160058201805461042990612f7d565b80601f016020809104026020016040519081016040528092919081815260200182805461045590612f7d565b80156104a25780601f10610477576101008083540402835291602001916104a2565b820191906000526020600020905b81548152906001019060200180831161048557829003601f168201915b505050505081526020016006820180546104bb90612f7d565b80601f01602080910402602001604051908101604052809291908181526020018280546104e790612f7d565b80156105345780601f1061050957610100808354040283529160200191610534565b820191906000526020600020905b81548152906001019060200180831161051757829003601f168201915b5050505050815250509050919050565b60006008905060003390506000600460009054906101000a900473ffffffffffffffffffffffffffffffffffffffff1673ffffffffffffffffffffffffffffffffffffffff1663bb1bd10b848c8c8c8c8c8c306040518963ffffffff1660e01b81526004016105ba989796959493929190613019565b6020604051808303816000875af11580156105d9573d6000803e3d6000fd5b505050506040513d601f19601f820116820180604052508101906105fd919061309c565b9050600660003373ffffffffffffffffffffffffffffffffffffffff1673ffffffffffffffffffffffffffffffffffffffff168152602001908152602001600020819080600181540180825580915050600190039060005260206000200160009091909190916101000a81548173ffffffffffffffffffffffffffffffffffffffff021916908373ffffffffffffffffffffffffffffffffffffffff16021790555060005b848110156107bc5760008273ffffffffffffffffffffffffffffffffffffffff16636a627842856040518263ffffffff1660e01b81526004016106e591906130c9565b6020604051808303816000875af1158015610704573d6000803e3d6000fd5b505050506040513d601f19601f8201168201806040525081019061072891906130f9565b90506107348382611c29565b60076000828152602001908152602001600020339080600181540180825580915050600190039060005260206000200160009091909190916101000a81548173ffffffffffffffffffffffffffffffffffffffff021916908373ffffffffffffffffffffffffffffffffffffffff1602179055505080806107b490613155565b9150506106a2565b5050505050505050505050565b60006005600083815260200190815260200160002090506000600860008360010160009054906101000a900473ffffffffffffffffffffffffffffffffffffffff1673ffffffffffffffffffffffffffffffffffffffff1673ffffffffffffffffffffffffffffffffffffffff16815260200190815260200160002080549050905060018081111561085e5761085d61283d565b5b8260000160009054906101000a900460ff1660018111156108825761088161283d565b5b146108c2576040517f08c379a00000000000000000000000000000000000000000000000000000000081526004016108b9906131e9565b60405180910390fd5b8160010160009054906101000a900473ffffffffffffffffffffffffffffffffffffffff1673ffffffffffffffffffffffffffffffffffffffff163373ffffffffffffffffffffffffffffffffffffffff1603610954576040517f08c379a000000000000000000000000000000000000000000000000000000000815260040161094b90613255565b60405180910390fd5b816004015434101561099b576040517f08c379a0000000000000000000000000000000000000000000000000000000008152600401610992906132c1565b60405180910390fd5b8160000160019054906101000a900473ffffffffffffffffffffffffffffffffffffffff1673ffffffffffffffffffffffffffffffffffffffff168260010160009054906101000a900473ffffffffffffffffffffffffffffffffffffffff1673ffffffffffffffffffffffffffffffffffffffff1614610cb457600080600090505b82811015610bd457600860008560010160009054906101000a900473ffffffffffffffffffffffffffffffffffffffff1673ffffffffffffffffffffffffffffffffffffffff1673ffffffffffffffffffffffffffffffffffffffff1681526020019081526020016000208181548110610a9b57610a9a6132e1565b5b906000526020600020906005020160000160009054906101000a900473ffffffffffffffffffffffffffffffffffffffff1673ffffffffffffffffffffffffffffffffffffffff168460020160009054906101000a900473ffffffffffffffffffffffffffffffffffffffff1673ffffffffffffffffffffffffffffffffffffffff16148015610bb45750600860008560010160009054906101000a900473ffffffffffffffffffffffffffffffffffffffff1673ffffffffffffffffffffffffffffffffffffffff1673ffffffffffffffffffffffffffffffffffffffff1681526020019081526020016000208181548110610b9b57610b9a6132e1565b5b9060005260206000209060050201600101548460030154145b15610bc157809150610bd4565b8080610bcc90613155565b915050610a1e565b50600860008460010160009054906101000a900473ffffffffffffffffffffffffffffffffffffffff1673ffffffffffffffffffffffffffffffffffffffff1673ffffffffffffffffffffffffffffffffffffffff1681526020019081526020016000208181548110610c4a57610c496132e1565b5b9060005260206000209060050201600080820160006101000a81549073ffffffffffffffffffffffffffffffffffffffff02191690556001820160009055600282016000610c98919061269e565b600382016000610ca8919061269e565b60048201600090555050505b8160020160009054906101000a900473ffffffffffffffffffffffffffffffffffffffff1673ffffffffffffffffffffffffffffffffffffffff166323b872dd303385600301546040518463ffffffff1660e01b8152600401610d1993929190613310565b600060405180830381600087803b158015610d3357600080fd5b505af1158015610d47573d6000803e3d6000fd5b505050508160010160009054906101000a900473ffffffffffffffffffffffffffffffffffffffff1673ffffffffffffffffffffffffffffffffffffffff166108fc83600401549081150290604051600060405180830381858888f19350505050158015610db9573d6000803e3d6000fd5b5060008260000160006101000a81548160ff02191690836001811115610de257610de161283d565b5b0217905550338260010160006101000a81548173ffffffffffffffffffffffffffffffffffffffff021916908373ffffffffffffffffffffffffffffffffffffffff16021790555060035482600401819055506007600083600301548152602001908152602001600020339080600181540180825580915050600190039060005260206000200160009091909190916101000a81548173ffffffffffffffffffffffffffffffffffffffff021916908373ffffffffffffffffffffffffffffffffffffffff160217905550600860003373ffffffffffffffffffffffffffffffffffffffff1673ffffffffffffffffffffffffffffffffffffffff1681526020019081526020016000206040518060a001604052808460020160009054906101000a900473ffffffffffffffffffffffffffffffffffffffff1673ffffffffffffffffffffffffffffffffffffffff16815260200184600301548152602001846005018054610f5090612f7d565b80601f0160208091040260200160405190810160405280929190818152602001828054610f7c90612f7d565b8015610fc95780601f10610f9e57610100808354040283529160200191610fc9565b820191906000526020600020905b815481529060010190602001808311610fac57829003601f168201915b50505050508152602001846006018054610fe290612f7d565b80601f016020809104026020016040519081016040528092919081815260200182805461100e90612f7d565b801561105b5780601f106110305761010080835404028352916020019161105b565b820191906000526020600020905b81548152906001019060200180831161103e57829003601f168201915b5050505050815260200183815250908060018154018082558091505060019003906000526020600020906005020160009091909190915060008201518160000160006101000a81548173ffffffffffffffffffffffffffffffffffffffff021916908373ffffffffffffffffffffffffffffffffffffffff1602179055506020820151816001015560408201518160020190805190602001906110ff9291906126de565b50606082015181600301908051906020019061111c9291906126de565b506080820151816004015550507f51353ef1fff271a2d72b094c20468c9d1724dd61cc9336e13432d1f9ca3be12e8260000160009054906101000a900460ff16848460000160019054906101000a900473ffffffffffffffffffffffffffffffffffffffff168560010160009054906101000a900473ffffffffffffffffffffffffffffffffffffffff168660020160009054906101000a900473ffffffffffffffffffffffffffffffffffffffff1687600301548860040154896005018a6006016040516111f3999897969594939291906133eb565b60405180910390a1505050565b60006005600083815260200190815260200160002090508060010160009054906101000a900473ffffffffffffffffffffffffffffffffffffffff1673ffffffffffffffffffffffffffffffffffffffff163373ffffffffffffffffffffffffffffffffffffffff16146112a9576040517f08c379a00000000000000000000000000000000000000000000000000000000081526004016112a0906134d2565b60405180910390fd5b6001808111156112bc576112bb61283d565b5b8160000160009054906101000a900460ff1660018111156112e0576112df61283d565b5b14611320576040517f08c379a0000000000000000000000000000000000000000000000000000000008152600401611317906131e9565b60405180910390fd5b60008160000160006101000a81548160ff021916908360018111156113485761134761283d565b5b02179055508060020160009054906101000a900473ffffffffffffffffffffffffffffffffffffffff1673ffffffffffffffffffffffffffffffffffffffff166323b872dd303384600301546040518463ffffffff1660e01b81526004016113b293929190613310565b600060405180830381600087803b1580156113cc57600080fd5b505af11580156113e0573d6000803e3d6000fd5b505050507fcf8d381ef37f0c86b242bc58dd86fd096104012630643649483aa413ef877bbf8160000160009054906101000a900460ff16838360000160019054906101000a900473ffffffffffffffffffffffffffffffffffffffff16338560020160009054906101000a900473ffffffffffffffffffffffffffffffffffffffff1686600301548760040154886005018960060160405161148a999897969594939291906133eb565b60405180910390a15050565b6060600060056000848152602001908152602001600020604051806101000160405290816000820160009054906101000a900460ff1660018111156114de576114dd61283d565b5b60018111156114f0576114ef61283d565b5b81526020016000820160019054906101000a900473ffffffffffffffffffffffffffffffffffffffff1673ffffffffffffffffffffffffffffffffffffffff1673ffffffffffffffffffffffffffffffffffffffff1681526020016001820160009054906101000a900473ffffffffffffffffffffffffffffffffffffffff1673ffffffffffffffffffffffffffffffffffffffff1673ffffffffffffffffffffffffffffffffffffffff1681526020016002820160009054906101000a900473ffffffffffffffffffffffffffffffffffffffff1673ffffffffffffffffffffffffffffffffffffffff1673ffffffffffffffffffffffffffffffffffffffff168152602001600382015481526020016004820154815260200160058201805461161a90612f7d565b80601f016020809104026020016040519081016040528092919081815260200182805461164690612f7d565b80156116935780601f1061166857610100808354040283529160200191611693565b820191906000526020600020905b81548152906001019060200180831161167657829003601f168201915b505050505081526020016006820180546116ac90612f7d565b80601f01602080910402602001604051908101604052809291908181526020018280546116d890612f7d565b80156117255780601f106116fa57610100808354040283529160200191611725565b820191906000526020600020905b81548152906001019060200180831161170857829003601f168201915b505050505081525050905060076000826080015181526020019081526020016000208054806020026020016040519081016040528092919081815260200182805480156117c757602002820191906000526020600020905b8160009054906101000a900473ffffffffffffffffffffffffffffffffffffffff1673ffffffffffffffffffffffffffffffffffffffff168152602001906001019080831161177d575b5050505050915050919050565b600060056000848152602001908152602001600020905060003090503373ffffffffffffffffffffffffffffffffffffffff168260020160009054906101000a900473ffffffffffffffffffffffffffffffffffffffff1673ffffffffffffffffffffffffffffffffffffffff16636352211e84600301546040518263ffffffff1660e01b815260040161186891906134f2565b602060405180830381865afa158015611885573d6000803e3d6000fd5b505050506040513d601f19601f820116820180604052508101906118a9919061309c565b73ffffffffffffffffffffffffffffffffffffffff16146118ff576040517f08c379a00000000000000000000000000000000000000000000000000000000081526004016118f690613559565b60405180910390fd5b600060018111156119135761191261283d565b5b8260000160009054906101000a900460ff1660018111156119375761193661283d565b5b14611977576040517f08c379a000000000000000000000000000000000000000000000000000000000815260040161196e906135c5565b60405180910390fd5b82826004018190555060018260000160006101000a81548160ff021916908360018111156119a8576119a761283d565b5b02179055508160020160009054906101000a900473ffffffffffffffffffffffffffffffffffffffff1673ffffffffffffffffffffffffffffffffffffffff1663b7802a21336040518263ffffffff1660e01b8152600401611a0a91906130c9565b600060405180830381600087803b158015611a2457600080fd5b505af1158015611a38573d6000803e3d6000fd5b505050508160020160009054906101000a900473ffffffffffffffffffffffffffffffffffffffff1673ffffffffffffffffffffffffffffffffffffffff1663a22cb46582600160009054906101000a900460ff166040518363ffffffff1660e01b8152600401611aaa929190613600565b600060405180830381600087803b158015611ac457600080fd5b505af1158015611ad8573d6000803e3d6000fd5b505050508160020160009054906101000a900473ffffffffffffffffffffffffffffffffffffffff1673ffffffffffffffffffffffffffffffffffffffff166323b872dd338385600301546040518463ffffffff1660e01b8152600401611b4193929190613310565b600060405180830381600087803b158015611b5b57600080fd5b505af1158015611b6f573d6000803e3d6000fd5b505050507f02f7801340ef8b2973c684526dc6bf623adf2d6ef0dc90663ed3492fbb3a2f7f8260000160009054906101000a900460ff166002548460000160019054906101000a900473ffffffffffffffffffffffffffffffffffffffff16338660020160009054906101000a900473ffffffffffffffffffffffffffffffffffffffff1687600301548860040154896005018a600601604051611c1b999897969594939291906133eb565b60405180910390a150505050565b3373ffffffffffffffffffffffffffffffffffffffff168273ffffffffffffffffffffffffffffffffffffffff16636352211e836040518263ffffffff1660e01b8152600401611c7991906134f2565b602060405180830381865afa158015611c96573d6000803e3d6000fd5b505050506040513d601f19601f82011682018060405250810190611cba919061309c565b73ffffffffffffffffffffffffffffffffffffffff1614611d10576040517f08c379a0000000000000000000000000000000000000000000000000000000008152600401611d0790613675565b60405180910390fd5b60008273ffffffffffffffffffffffffffffffffffffffff166306fdde036040518163ffffffff1660e01b8152600401600060405180830381865afa158015611d5d573d6000803e3d6000fd5b505050506040513d6000823e3d601f19601f82011682018060405250810190611d8691906137b6565b905060008373ffffffffffffffffffffffffffffffffffffffff1663c87b56dd846040518263ffffffff1660e01b8152600401611dc391906134f2565b600060405180830381865afa158015611de0573d6000803e3d6000fd5b505050506040513d6000823e3d601f19601f82011682018060405250810190611e0991906137b6565b9050600060405180610100016040528060006001811115611e2d57611e2c61283d565b5b81526020013373ffffffffffffffffffffffffffffffffffffffff1681526020013373ffffffffffffffffffffffffffffffffffffffff1681526020018673ffffffffffffffffffffffffffffffffffffffff168152602001858152602001600354815260200184815260200183815250905060026000815480929190611eb390613155565b91905055508060056000600254815260200190815260200160002060008201518160000160006101000a81548160ff02191690836001811115611ef957611ef861283d565b5b021790555060208201518160000160016101000a81548173ffffffffffffffffffffffffffffffffffffffff021916908373ffffffffffffffffffffffffffffffffffffffff16021790555060408201518160010160006101000a81548173ffffffffffffffffffffffffffffffffffffffff021916908373ffffffffffffffffffffffffffffffffffffffff16021790555060608201518160020160006101000a81548173ffffffffffffffffffffffffffffffffffffffff021916908373ffffffffffffffffffffffffffffffffffffffff1602179055506080820151816003015560a0820151816004015560c08201518160050190805190602001906120039291906126de565b5060e08201518160060190805190602001906120209291906126de565b509050507fa115481c0f899c55f9ca16916712955696982e4ce7400c0f4e8159e5b92e29ca8160000151600254333389898989604051612067989796959493929190613838565b60405180910390a15050505050565b6060600660008373ffffffffffffffffffffffffffffffffffffffff1673ffffffffffffffffffffffffffffffffffffffff16815260200190815260200160002080548060200260200160405190810160405280929190818152602001828054801561213757602002820191906000526020600020905b8160009054906101000a900473ffffffffffffffffffffffffffffffffffffffff1673ffffffffffffffffffffffffffffffffffffffff16815260200190600101908083116120ed575b50505050509050919050565b61214b612764565b600860008473ffffffffffffffffffffffffffffffffffffffff1673ffffffffffffffffffffffffffffffffffffffff168152602001908152602001600020828154811061219c5761219b6132e1565b5b90600052602060002090600502016040518060a00160405290816000820160009054906101000a900473ffffffffffffffffffffffffffffffffffffffff1673ffffffffffffffffffffffffffffffffffffffff1673ffffffffffffffffffffffffffffffffffffffff1681526020016001820154815260200160028201805461222590612f7d565b80601f016020809104026020016040519081016040528092919081815260200182805461225190612f7d565b801561229e5780601f106122735761010080835404028352916020019161229e565b820191906000526020600020905b81548152906001019060200180831161228157829003601f168201915b505050505081526020016003820180546122b790612f7d565b80601f01602080910402602001604051908101604052809291908181526020018280546122e390612f7d565b80156123305780601f1061230557610100808354040283529160200191612330565b820191906000526020600020905b81548152906001019060200180831161231357829003601f168201915b50505050508152602001600482015481525050905092915050565b60008173ffffffffffffffffffffffffffffffffffffffff16636a627842336040518263ffffffff1660e01b815260040161238691906130c9565b6020604051808303816000875af11580156123a5573d6000803e3d6000fd5b505050506040513d601f19601f820116820180604052508101906123c991906130f9565b90506123d58282611c29565b5050565b6060600860008373ffffffffffffffffffffffffffffffffffffffff1673ffffffffffffffffffffffffffffffffffffffff168152602001908152602001600020805480602002602001604051908101604052809291908181526020016000905b828210156125fa57838290600052602060002090600502016040518060a00160405290816000820160009054906101000a900473ffffffffffffffffffffffffffffffffffffffff1673ffffffffffffffffffffffffffffffffffffffff1673ffffffffffffffffffffffffffffffffffffffff168152602001600182015481526020016002820180546124cd90612f7d565b80601f01602080910402602001604051908101604052809291908181526020018280546124f990612f7d565b80156125465780601f1061251b57610100808354040283529160200191612546565b820191906000526020600020905b81548152906001019060200180831161252957829003601f168201915b5050505050815260200160038201805461255f90612f7d565b80601f016020809104026020016040519081016040528092919081815260200182805461258b90612f7d565b80156125d85780601f106125ad576101008083540402835291602001916125d8565b820191906000526020600020905b8154815290600101906020018083116125bb57829003601f168201915b505050505081526020016004820154815250508152602001906001019061243a565b505050509050919050565b604051806101000160405280600060018111156126255761262461283d565b5b8152602001600073ffffffffffffffffffffffffffffffffffffffff168152602001600073ffffffffffffffffffffffffffffffffffffffff168152602001600073ffffffffffffffffffffffffffffffffffffffff168152602001600081526020016000815260200160608152602001606081525090565b5080546126aa90612f7d565b6000825580601f106126bc57506126db565b601f0160209004906000526020600020908101906126da91906127a9565b5b50565b8280546126ea90612f7d565b90600052602060002090601f01602090048101928261270c5760008555612753565b82601f1061272557805160ff1916838001178555612753565b82800160010185558215612753579182015b82811115612752578251825591602001919060010190612737565b5b50905061276091906127a9565b5090565b6040518060a00160405280600073ffffffffffffffffffffffffffffffffffffffff168152602001600081526020016060815260200160608152602001600081525090565b5b808211156127c25760008160009055506001016127aa565b5090565b6000604051905090565b600080fd5b600080fd5b6000819050919050565b6127ed816127da565b81146127f857600080fd5b50565b60008135905061280a816127e4565b92915050565b600060208284031215612826576128256127d0565b5b6000612834848285016127fb565b91505092915050565b7f4e487b7100000000000000000000000000000000000000000000000000000000600052602160045260246000fd5b6002811061287d5761287c61283d565b5b50565b600081905061288e8261286c565b919050565b600061289e82612880565b9050919050565b6128ae81612893565b82525050565b600073ffffffffffffffffffffffffffffffffffffffff82169050919050565b60006128df826128b4565b9050919050565b6128ef816128d4565b82525050565b6128fe816127da565b82525050565b600081519050919050565b600082825260208201905092915050565b60005b8381101561293e578082015181840152602081019050612923565b8381111561294d576000848401525b50505050565b6000601f19601f8301169050919050565b600061296f82612904565b612979818561290f565b9350612989818560208601612920565b61299281612953565b840191505092915050565b6000610100830160008301516129b660008601826128a5565b5060208301516129c960208601826128e6565b5060408301516129dc60408601826128e6565b5060608301516129ef60608601826128e6565b506080830151612a0260808601826128f5565b5060a0830151612a1560a08601826128f5565b5060c083015184820360c0860152612a2d8282612964565b91505060e083015184820360e0860152612a478282612964565b9150508091505092915050565b60006020820190508181036000830152612a6e818461299d565b905092915050565b600080fd5b600080fd5b600080fd5b60008083601f840112612a9b57612a9a612a76565b5b8235905067ffffffffffffffff811115612ab857612ab7612a7b565b5b602083019150836001820283011115612ad457612ad3612a80565b5b9250929050565b60008060008060008060006080888a031215612afa57612af96127d0565b5b600088013567ffffffffffffffff811115612b1857612b176127d5565b5b612b248a828b01612a85565b9750975050602088013567ffffffffffffffff811115612b4757612b466127d5565b5b612b538a828b01612a85565b9550955050604088013567ffffffffffffffff811115612b7657612b756127d5565b5b612b828a828b01612a85565b93509350506060612b958a828b016127fb565b91505092959891949750929550565b600081519050919050565b600082825260208201905092915050565b6000819050602082019050919050565b6000612bdc83836128e6565b60208301905092915050565b6000602082019050919050565b6000612c0082612ba4565b612c0a8185612baf565b9350612c1583612bc0565b8060005b83811015612c46578151612c2d8882612bd0565b9750612c3883612be8565b925050600181019050612c19565b5085935050505092915050565b60006020820190508181036000830152612c6d8184612bf5565b905092915050565b60008060408385031215612c8c57612c8b6127d0565b5b6000612c9a858286016127fb565b9250506020612cab858286016127fb565b9150509250929050565b612cbe816128d4565b8114612cc957600080fd5b50565b600081359050612cdb81612cb5565b92915050565b60008060408385031215612cf857612cf76127d0565b5b6000612d0685828601612ccc565b9250506020612d17858286016127fb565b9150509250929050565b600060208284031215612d3757612d366127d0565b5b6000612d4584828501612ccc565b91505092915050565b600060a083016000830151612d6660008601826128e6565b506020830151612d7960208601826128f5565b5060408301518482036040860152612d918282612964565b91505060608301518482036060860152612dab8282612964565b9150506080830151612dc060808601826128f5565b508091505092915050565b60006020820190508181036000830152612de58184612d4e565b905092915050565b600081519050919050565b600082825260208201905092915050565b6000819050602082019050919050565b600060a083016000830151612e3160008601826128e6565b506020830151612e4460208601826128f5565b5060408301518482036040860152612e5c8282612964565b91505060608301518482036060860152612e768282612964565b9150506080830151612e8b60808601826128f5565b508091505092915050565b6000612ea28383612e19565b905092915050565b6000602082019050919050565b6000612ec282612ded565b612ecc8185612df8565b935083602082028501612ede85612e09565b8060005b85811015612f1a5784840389528151612efb8582612e96565b9450612f0683612eaa565b925060208a01995050600181019050612ee2565b50829750879550505050505092915050565b60006020820190508181036000830152612f468184612eb7565b905092915050565b7f4e487b7100000000000000000000000000000000000000000000000000000000600052602260045260246000fd5b60006002820490506001821680612f9557607f821691505b602082108103612fa857612fa7612f4e565b5b50919050565b612fb7816127da565b82525050565b600082825260208201905092915050565b82818337600083830152505050565b6000612fe98385612fbd565b9350612ff6838584612fce565b612fff83612953565b840190509392505050565b613013816128d4565b82525050565b600060a08201905061302e600083018b612fae565b818103602083015261304181898b612fdd565b90508181036040830152613056818789612fdd565b9050818103606083015261306b818587612fdd565b905061307a608083018461300a565b9998505050505050505050565b60008151905061309681612cb5565b92915050565b6000602082840312156130b2576130b16127d0565b5b60006130c084828501613087565b91505092915050565b60006020820190506130de600083018461300a565b92915050565b6000815190506130f3816127e4565b92915050565b60006020828403121561310f5761310e6127d0565b5b600061311d848285016130e4565b91505092915050565b7f4e487b7100000000000000000000000000000000000000000000000000000000600052601160045260246000fd5b6000613160826127da565b91507fffffffffffffffffffffffffffffffffffffffffffffffffffffffffffffffff820361319257613191613126565b5b600182019050919050565b7f4c697374696e67206973206e6f74206163746976650000000000000000000000600082015250565b60006131d3601583612fbd565b91506131de8261319d565b602082019050919050565b60006020820190508181036000830152613202816131c6565b9050919050565b7f73656c6c65722063616e6e6f7420626520627579657200000000000000000000600082015250565b600061323f601683612fbd565b915061324a82613209565b602082019050919050565b6000602082019050818103600083015261326e81613232565b9050919050565b7f496e737566696369656e7420616d6f756e740000000000000000000000000000600082015250565b60006132ab601283612fbd565b91506132b682613275565b602082019050919050565b600060208201905081810360008301526132da8161329e565b9050919050565b7f4e487b7100000000000000000000000000000000000000000000000000000000600052603260045260246000fd5b6000606082019050613325600083018661300a565b613332602083018561300a565b61333f6040830184612fae565b949350505050565b61335081612893565b82525050565b60008190508160005260206000209050919050565b6000815461337881612f7d565b6133828186612fbd565b9450600182166000811461339d57600181146133af576133e2565b60ff19831686526020860193506133e2565b6133b885613356565b60005b838110156133da578154818901526001820191506020810190506133bb565b808801955050505b50505092915050565b600061012082019050613401600083018c613347565b61340e602083018b612fae565b61341b604083018a61300a565b613428606083018961300a565b613435608083018861300a565b61344260a0830187612fae565b61344f60c0830186612fae565b81810360e0830152613461818561336b565b9050818103610100830152613476818461336b565b90509a9950505050505050505050565b7f4f6e6c792073656c6c65722063616e2063616e63656c206c697374696e670000600082015250565b60006134bc601e83612fbd565b91506134c782613486565b602082019050919050565b600060208201905081810360008301526134eb816134af565b9050919050565b60006020820190506135076000830184612fae565b92915050565b7f596f7520617265206e6f7420746865206f776e65723737000000000000000000600082015250565b6000613543601783612fbd565b915061354e8261350d565b602082019050919050565b6000602082019050818103600083015261357281613536565b9050919050565b7f546865204e46542063616e2774206265206c697374656420746f2073656c6c2e600082015250565b60006135af602083612fbd565b91506135ba82613579565b602082019050919050565b600060208201905081810360008301526135de816135a2565b9050919050565b60008115159050919050565b6135fa816135e5565b82525050565b6000604082019050613615600083018561300a565b61362260208301846135f1565b9392505050565b7f43616c6c6572206973206e6f742074686520746f6b656e206f776e6572000000600082015250565b600061365f601d83612fbd565b915061366a82613629565b602082019050919050565b6000602082019050818103600083015261368e81613652565b9050919050565b600080fd5b7f4e487b7100000000000000000000000000000000000000000000000000000000600052604160045260246000fd5b6136d282612953565b810181811067ffffffffffffffff821117156136f1576136f061369a565b5b80604052505050565b60006137046127c6565b905061371082826136c9565b919050565b600067ffffffffffffffff8211156137305761372f61369a565b5b61373982612953565b9050602081019050919050565b600061375961375484613715565b6136fa565b90508281526020810184848401111561377557613774613695565b5b613780848285612920565b509392505050565b600082601f83011261379d5761379c612a76565b5b81516137ad848260208601613746565b91505092915050565b6000602082840312156137cc576137cb6127d0565b5b600082015167ffffffffffffffff8111156137ea576137e96127d5565b5b6137f684828501613788565b91505092915050565b600061380a82612904565b6138148185612fbd565b9350613824818560208601612920565b61382d81612953565b840191505092915050565b60006101008201905061384e600083018b613347565b61385b602083018a612fae565b613868604083018961300a565b613875606083018861300a565b613882608083018761300a565b61388f60a0830186612fae565b81810360c08301526138a181856137ff565b905081810360e08301526138b581846137ff565b9050999850505050505050505056fea26469706673582212209af5d5a492be9598f6bbb62203f4559d1653e5b549ce3243b78b17445c36bd0c64736f6c634300080d0033",
  "immutableReferences": {},
  "source": "// SPDX-License-Identifier: MIT\npragma solidity 0.8.13;\n/* import \"./5_NFTCopy.sol\";\nimport \"./4_NFTFactory.sol\"; */\n\nimport \"./NFTFactory.sol\";\nimport \"./MyNFT.sol\";\n\ncontract Marketplace {\n    enum ListingStatus {\n        Showable,\n        Active\n    }\n\n    struct Listing {\n        ListingStatus status;\n        address Creator;\n        address seller;\n        address tokenContract;\n        uint256 tokenId;\n        uint256 price;\n        string collection;\n        string JSONTokenURI;\n    }\n    struct MyBuyedNFT {\n        address tokenContract;\n        uint256 tokenId;\n        string collection;\n        string JSONTokenURI;\n        uint256 myindex;\n    }\n\n    event Showed(\n        ListingStatus status,\n        uint256 listingId,\n        address Creator,\n        address seller,\n        address token,\n        uint256 tokenId,\n        string collection,\n        string JSONTokenURI\n    );\n\n    event Listed(\n        ListingStatus status,\n        uint256 listingId,\n        address Creator,\n        address seller,\n        address token,\n        uint256 tokenId,\n        uint256 price,\n        string collection,\n        string JSONTokenURI\n    );\n\n    event Buyed(\n        ListingStatus status,\n        uint256 listingId,\n        address Creator,\n        address seller,\n        address token,\n        uint256 tokenId,\n        uint256 price,\n        string collection,\n        string JSONTokenURI\n    );\n\n    event Cancelled(\n        ListingStatus status,\n        uint256 listingId,\n        address Creator,\n        address seller,\n        address token,\n        uint256 tokenId,\n        uint256 price,\n        string collection,\n        string JSONTokenURI\n    );\n\n    // ajouter modifier pour les requires;\n    // modifier isOwner(address _token, uint _tokenId) {\n    //     require(ERC721(_token).ownerOf((_tokenId)) == msg.sender, \"Caller is not the token owner\");\n    //     _;\n    // }\n    uint256 private _buyedTokenCounter;\n    bool _forApproved = true;\n    uint256 private _listingId = 0;\n    uint256 private _defaultPrice = 1000 ether;\n    address private _factoryAddress =\n        0x63b3175d7eCD6D7cE09A0802eFEd20454AB9383c;\n    mapping(uint256 => Listing) private _listings;\n    mapping(address => address[]) CollectionsOfOwner; // stocke les collections crer par une addresse\n    mapping(uint256 => address[]) SellActivty; // stocke pour 1 NFT donn, la liste des addresses ayant ete en possesion du nft\n    mapping(address => MyBuyedNFT[]) ListOfNFTfromUser; // stocke Uniquement les NFT achets.\n\n    // mapping(address=>uint[]) private _listingsOfCollection;\n    // mapping (address=>uint[])) collection; // tableau des tokenID d'une collection pour les afficher sur la pages collections. on commence par l'addresse du contrat pour viter les problmes si 2 noms identiques.\n\n    function getListing(uint256 listingId)\n        public\n        view\n        returns (Listing memory)\n    {\n        return _listings[listingId];\n    }\n\n    function getUserCollections(address _yourAddress)\n        public\n        view\n        returns (address[] memory)\n    {\n        return CollectionsOfOwner[_yourAddress];\n    }\n\n    // Obtenir l'historique d'achat\n    function getSellActivity(uint256 listingId)\n        public\n        view\n        returns (address[] memory)\n    {\n        Listing memory listing = _listings[listingId];\n        return SellActivty[listing.tokenId];\n    }\n\n    function getListOfNFTfromUser(address _youraddress)\n        public\n        view\n        returns (MyBuyedNFT[] memory)\n    {\n        return ListOfNFTfromUser[_youraddress];\n    }\n\n    // _thisCollection provient du frontend\n    function addItemToCollection(address _thisCollection) public {\n        uint256 _tokenId = MonNft(_thisCollection).mint(msg.sender);\n        showToken(_thisCollection, _tokenId);\n    }\n\n    // function isListingExist(uint _thelistingId) internal view returns(bool) {\n    //     return _listings[_thelistingId].tokenContract != address(0);\n    // }\n\n    // add showable function to make it showable but not to sale\n    function showToken(address _tokenContract, uint256 _tokenId) public {\n        require(\n            ERC721(_tokenContract).ownerOf((_tokenId)) == msg.sender,\n            \"Caller is not the token owner\"\n        );\n        string memory _collectionName = ERC721(_tokenContract).name();\n        string memory _JSONTokenURI = MonNft(_tokenContract).tokenURI(_tokenId);\n        // collection[_token][_collectionName].push(_tokenId); // tester si a s'ajoute bien au tableau\n        Listing memory listing = Listing(\n            ListingStatus.Showable,\n            msg.sender,\n            msg.sender,\n            _tokenContract,\n            _tokenId,\n            _defaultPrice,\n            _collectionName,\n            _JSONTokenURI\n        );\n\n        _listingId++;\n        _listings[_listingId] = listing;\n        emit Showed(\n            listing.status,\n            _listingId,\n            msg.sender,\n            msg.sender,\n            _tokenContract,\n            _tokenId,\n            _collectionName,\n            _JSONTokenURI\n        );\n    }\n\n    // function testPush(address _token, string calldata _collectionName) public view returns(uint[] memory) {\n    //     return (collection[_token][_collectionName]);\n    // }\n\n    function listToken(uint256 listingId, uint256 _price) external {\n        // price is in wei\n\n        Listing storage listing = _listings[listingId];\n        address testadress = address(this);\n        require(\n            ERC721(listing.tokenContract).ownerOf((listing.tokenId)) ==\n                msg.sender,\n            \"You are not the owner77\"\n        ); // vrifier require\n        require(\n            listing.status == ListingStatus.Showable,\n            \"The NFT can't be listed to sell.\"\n        );\n\n        listing.price = _price;\n        listing.status = ListingStatus.Active;\n        MonNft(listing.tokenContract)\n            .setAddressToMsgSenderOfListTokenFromMarketPlaceContract(\n                msg.sender\n            );\n        ERC721(listing.tokenContract).setApprovalForAll(\n            testadress,\n            _forApproved\n        );\n        IERC721(listing.tokenContract).transferFrom(\n            msg.sender,\n            testadress,\n            listing.tokenId\n        );\n\n        emit Listed(\n            listing.status,\n            _listingId,\n            listing.Creator,\n            msg.sender,\n            listing.tokenContract,\n            listing.tokenId,\n            listing.price,\n            listing.collection,\n            listing.JSONTokenURI\n        );\n    }\n\n    // Pour verifier si token bien supprime du tableau\n    function deleteToken(\n        address _precedentAcheteur,\n        uint256 _indexOfDeletedItem\n    ) public view returns (MyBuyedNFT memory) {\n        return ListOfNFTfromUser[_precedentAcheteur][_indexOfDeletedItem];\n    }\n\n    // mapping (address=>MyBuyedNFT[]) ListOfNFTfromUser;\n    function buyToken(uint256 listingId) external payable {\n        Listing storage listing = _listings[listingId];\n        uint256 lengthOfListOfNFTfromUser = ListOfNFTfromUser[listing.seller]\n            .length;\n        require(\n            listing.status == ListingStatus.Active,\n            \"Listing is not active\"\n        );\n        require(msg.sender != listing.seller, \"seller cannot be buyer\");\n        require(msg.value >= listing.price, \"Insuficient amount\");\n        // Pour le front si listing.tokenContract = address(0) alors pas afficher else afficher\n        // plutot un if require(listing.seller != listing.creator) // Ajouter address Creator dans la struct Listing\n        // ListOfNFTfromUser[listing.seller].pull(indexOfNFt)\n        // si le vendeur est le crateur alors pas besoin de retirer de ListOfNFTfromUser\n        if (listing.seller != listing.Creator) {\n            uint256 indexOfDeletedNFT;\n            for (uint256 i = 0; i < lengthOfListOfNFTfromUser; i++) {\n                if (\n                    listing.tokenContract ==\n                    ListOfNFTfromUser[listing.seller][i].tokenContract &&\n                    listing.tokenId ==\n                    ListOfNFTfromUser[listing.seller][i].tokenId\n                ) {\n                    indexOfDeletedNFT = i;\n                    break;\n                }\n            }\n            // uint indexOfListOfNFTfromUser = ListOfNFTfromUser[listing.seller].myindex;\n            // ListOfNFTfromUser[listing.seller].myindex.delete(indexOfListOfNFTfromUser);\n            delete ListOfNFTfromUser[listing.seller][indexOfDeletedNFT];\n        }\n\n        IERC721(listing.tokenContract).transferFrom(\n            address(this),\n            msg.sender,\n            listing.tokenId\n        );\n        payable(listing.seller).transfer(listing.price); // Tester si ca marche sans payable\n\n        listing.status = ListingStatus.Showable;\n        listing.seller = msg.sender;\n        listing.price = _defaultPrice;\n        SellActivty[listing.tokenId].push(msg.sender);\n        ListOfNFTfromUser[msg.sender].push(\n            MyBuyedNFT(\n                listing.tokenContract,\n                listing.tokenId,\n                listing.collection,\n                listing.JSONTokenURI,\n                lengthOfListOfNFTfromUser\n            )\n        );\n\n        emit Buyed(\n            listing.status,\n            listingId,\n            listing.Creator,\n            listing.seller,\n            listing.tokenContract,\n            listing.tokenId,\n            listing.price,\n            listing.collection,\n            listing.JSONTokenURI\n        );\n    }\n\n    function cancel(uint256 listingId) public payable {\n        Listing storage listing = _listings[listingId];\n\n        // require(ERC721(listing.token).ownerOf((listing.tokenId)) == msg.sender); // vrifier require. Marche probablement pas car le token est transferer a la marketplace qd lister\n        require(msg.sender == listing.seller, \"Only seller can cancel listing\"); // Solution alternative\n        require(\n            listing.status == ListingStatus.Active,\n            \"Listing is not active\"\n        );\n\n        listing.status = ListingStatus.Showable;\n\n        IERC721(listing.tokenContract).transferFrom(\n            address(this),\n            msg.sender,\n            listing.tokenId\n        );\n\n        emit Cancelled(\n            listing.status,\n            listingId,\n            listing.Creator,\n            msg.sender,\n            listing.tokenContract,\n            listing.tokenId,\n            listing.price,\n            listing.collection,\n            listing.JSONTokenURI\n        );\n    }\n\n    function DeployMyNFT(\n        string calldata _Collectionname,\n        string calldata _Collectionsymbol,\n        string calldata _CollectionBaseUri,\n        uint256 _NumberOfNftToMint\n    ) public payable {\n        uint256 _salt = 8;\n        address ownerOfNFTContratIs = msg.sender;\n        address _addressCollection = NFTFactory(_factoryAddress).DeployYourNFT(\n            _salt,\n            _Collectionname,\n            _Collectionsymbol,\n            _CollectionBaseUri,\n            address(this)\n        );\n        CollectionsOfOwner[msg.sender].push(_addressCollection);\n        for (uint256 i = 0; i < _NumberOfNftToMint; i++) {\n            uint256 _tokenId = MonNft(_addressCollection).mint(\n                ownerOfNFTContratIs\n            );\n            showToken(_addressCollection, _tokenId);\n            SellActivty[_tokenId].push(msg.sender);\n        }\n    }\n}\n",
  "sourcePath": "/Users/mamadouseck/Desktop/alyra-projet4/truffle/contracts/MarketplaceV4.sol",
  "compiler": {
    "name": "solc",
    "version": "0.8.13+commit.abaa5c0e.Emscripten.clang"
  },
  "schemaVersion": "3.4.7",
  "updatedAt": "2022-05-16T21:02:41.219Z",
  "networkType": "ethereum",
  "devdoc": {
    "kind": "dev",
    "methods": {},
    "version": 1
  },
  "userdoc": {
    "kind": "user",
    "methods": {},
    "version": 1
  }
}