{
  "contractName": "MonNft",
  "abi": [
    {
      "inputs": [
        {
          "internalType": "string",
          "name": "_Collectionname",
          "type": "string"
        },
        {
          "internalType": "string",
          "name": "_Collectionsymbol",
          "type": "string"
        },
        {
          "internalType": "string",
          "name": "_CollectionBaseUri",
          "type": "string"
        },
        {
          "internalType": "address",
          "name": "_marketplaceAddres",
          "type": "address"
        }
      ],
      "stateMutability": "nonpayable",
      "type": "constructor"
    },
    {
      "anonymous": false,
      "inputs": [
        {
          "indexed": true,
          "internalType": "address",
          "name": "owner",
          "type": "address"
        },
        {
          "indexed": true,
          "internalType": "address",
          "name": "approved",
          "type": "address"
        },
        {
          "indexed": true,
          "internalType": "uint256",
          "name": "tokenId",
          "type": "uint256"
        }
      ],
      "name": "Approval",
      "type": "event"
    },
    {
      "anonymous": false,
      "inputs": [
        {
          "indexed": true,
          "internalType": "address",
          "name": "owner",
          "type": "address"
        },
        {
          "indexed": true,
          "internalType": "address",
          "name": "operator",
          "type": "address"
        },
        {
          "indexed": false,
          "internalType": "bool",
          "name": "approved",
          "type": "bool"
        }
      ],
      "name": "ApprovalForAll",
      "type": "event"
    },
    {
      "anonymous": false,
      "inputs": [
        {
          "indexed": false,
          "internalType": "string",
          "name": "_realisedURI",
          "type": "string"
        },
        {
          "indexed": false,
          "internalType": "uint256",
          "name": "_tokenId",
          "type": "uint256"
        }
      ],
      "name": "CreatedURI",
      "type": "event"
    },
    {
      "anonymous": false,
      "inputs": [
        {
          "indexed": true,
          "internalType": "address",
          "name": "from",
          "type": "address"
        },
        {
          "indexed": true,
          "internalType": "address",
          "name": "to",
          "type": "address"
        },
        {
          "indexed": true,
          "internalType": "uint256",
          "name": "tokenId",
          "type": "uint256"
        }
      ],
      "name": "Transfer",
      "type": "event"
    },
    {
      "inputs": [
        {
          "internalType": "address",
          "name": "to",
          "type": "address"
        },
        {
          "internalType": "uint256",
          "name": "tokenId",
          "type": "uint256"
        }
      ],
      "name": "approve",
      "outputs": [],
      "stateMutability": "nonpayable",
      "type": "function"
    },
    {
      "inputs": [
        {
          "internalType": "address",
          "name": "owner",
          "type": "address"
        }
      ],
      "name": "balanceOf",
      "outputs": [
        {
          "internalType": "uint256",
          "name": "",
          "type": "uint256"
        }
      ],
      "stateMutability": "view",
      "type": "function"
    },
    {
      "inputs": [],
      "name": "extension",
      "outputs": [
        {
          "internalType": "string",
          "name": "",
          "type": "string"
        }
      ],
      "stateMutability": "view",
      "type": "function"
    },
    {
      "inputs": [
        {
          "internalType": "uint256",
          "name": "tokenId",
          "type": "uint256"
        }
      ],
      "name": "getApproved",
      "outputs": [
        {
          "internalType": "address",
          "name": "",
          "type": "address"
        }
      ],
      "stateMutability": "view",
      "type": "function"
    },
    {
      "inputs": [
        {
          "internalType": "address",
          "name": "owner",
          "type": "address"
        },
        {
          "internalType": "address",
          "name": "operator",
          "type": "address"
        }
      ],
      "name": "isApprovedForAll",
      "outputs": [
        {
          "internalType": "bool",
          "name": "",
          "type": "bool"
        }
      ],
      "stateMutability": "view",
      "type": "function"
    },
    {
      "inputs": [],
      "name": "name",
      "outputs": [
        {
          "internalType": "string",
          "name": "",
          "type": "string"
        }
      ],
      "stateMutability": "view",
      "type": "function"
    },
    {
      "inputs": [
        {
          "internalType": "uint256",
          "name": "tokenId",
          "type": "uint256"
        }
      ],
      "name": "ownerOf",
      "outputs": [
        {
          "internalType": "address",
          "name": "",
          "type": "address"
        }
      ],
      "stateMutability": "view",
      "type": "function"
    },
    {
      "inputs": [
        {
          "internalType": "address",
          "name": "from",
          "type": "address"
        },
        {
          "internalType": "address",
          "name": "to",
          "type": "address"
        },
        {
          "internalType": "uint256",
          "name": "tokenId",
          "type": "uint256"
        }
      ],
      "name": "safeTransferFrom",
      "outputs": [],
      "stateMutability": "nonpayable",
      "type": "function"
    },
    {
      "inputs": [
        {
          "internalType": "address",
          "name": "from",
          "type": "address"
        },
        {
          "internalType": "address",
          "name": "to",
          "type": "address"
        },
        {
          "internalType": "uint256",
          "name": "tokenId",
          "type": "uint256"
        },
        {
          "internalType": "bytes",
          "name": "_data",
          "type": "bytes"
        }
      ],
      "name": "safeTransferFrom",
      "outputs": [],
      "stateMutability": "nonpayable",
      "type": "function"
    },
    {
      "inputs": [
        {
          "internalType": "bytes4",
          "name": "interfaceId",
          "type": "bytes4"
        }
      ],
      "name": "supportsInterface",
      "outputs": [
        {
          "internalType": "bool",
          "name": "",
          "type": "bool"
        }
      ],
      "stateMutability": "view",
      "type": "function"
    },
    {
      "inputs": [],
      "name": "symbol",
      "outputs": [
        {
          "internalType": "string",
          "name": "",
          "type": "string"
        }
      ],
      "stateMutability": "view",
      "type": "function"
    },
    {
      "inputs": [
        {
          "internalType": "uint256",
          "name": "index",
          "type": "uint256"
        }
      ],
      "name": "tokenByIndex",
      "outputs": [
        {
          "internalType": "uint256",
          "name": "",
          "type": "uint256"
        }
      ],
      "stateMutability": "view",
      "type": "function"
    },
    {
      "inputs": [
        {
          "internalType": "address",
          "name": "owner",
          "type": "address"
        },
        {
          "internalType": "uint256",
          "name": "index",
          "type": "uint256"
        }
      ],
      "name": "tokenOfOwnerByIndex",
      "outputs": [
        {
          "internalType": "uint256",
          "name": "",
          "type": "uint256"
        }
      ],
      "stateMutability": "view",
      "type": "function"
    },
    {
      "inputs": [],
      "name": "totalSupply",
      "outputs": [
        {
          "internalType": "uint256",
          "name": "",
          "type": "uint256"
        }
      ],
      "stateMutability": "view",
      "type": "function"
    },
    {
      "inputs": [
        {
          "internalType": "address",
          "name": "_marketplaceAddres",
          "type": "address"
        }
      ],
      "name": "setMarketplaceAddress",
      "outputs": [],
      "stateMutability": "nonpayable",
      "type": "function"
    },
    {
      "inputs": [
        {
          "internalType": "address",
          "name": "_MsgSenderAddress",
          "type": "address"
        }
      ],
      "name": "setAddressToMsgSenderOfListTokenFromMarketPlaceContract",
      "outputs": [],
      "stateMutability": "nonpayable",
      "type": "function"
    },
    {
      "inputs": [
        {
          "internalType": "address",
          "name": "operator",
          "type": "address"
        },
        {
          "internalType": "bool",
          "name": "approved",
          "type": "bool"
        }
      ],
      "name": "setApprovalForAll",
      "outputs": [],
      "stateMutability": "nonpayable",
      "type": "function"
    },
    {
      "inputs": [
        {
          "internalType": "address",
          "name": "from",
          "type": "address"
        },
        {
          "internalType": "address",
          "name": "to",
          "type": "address"
        },
        {
          "internalType": "uint256",
          "name": "tokenId",
          "type": "uint256"
        }
      ],
      "name": "transferFrom",
      "outputs": [],
      "stateMutability": "nonpayable",
      "type": "function"
    },
    {
      "inputs": [
        {
          "internalType": "address",
          "name": "ownerOfNFTContratIs",
          "type": "address"
        }
      ],
      "name": "mint",
      "outputs": [
        {
          "internalType": "uint256",
          "name": "",
          "type": "uint256"
        }
      ],
      "stateMutability": "nonpayable",
      "type": "function"
    },
    {
      "inputs": [
        {
          "internalType": "uint256",
          "name": "tokenId",
          "type": "uint256"
        }
      ],
      "name": "tokenURI",
      "outputs": [
        {
          "internalType": "string",
          "name": "",
          "type": "string"
        }
      ],
      "stateMutability": "view",
      "type": "function"
    }
  ],
  "bytecode": "0x60806040526040518060400160405280600581526020017f2e6a736f6e000000000000000000000000000000000000000000000000000000815250600a9080519060200190620000519291906200014e565b506001600d60146101000a81548160ff0219169083151502179055503480156200007a57600080fd5b506040516200367d3803806200367d8339818101604052810190620000a0919062000400565b83838160009080519060200190620000ba9291906200014e565b508060019080519060200190620000d39291906200014e565b50505081600b9080519060200190620000ee9291906200014e565b5062000100816200010a60201b60201c565b5050505062000533565b80600c60006101000a81548173ffffffffffffffffffffffffffffffffffffffff021916908373ffffffffffffffffffffffffffffffffffffffff16021790555050565b8280546200015c90620004fe565b90600052602060002090601f016020900481019282620001805760008555620001cc565b82601f106200019b57805160ff1916838001178555620001cc565b82800160010185558215620001cc579182015b82811115620001cb578251825591602001919060010190620001ae565b5b509050620001db9190620001df565b5090565b5b80821115620001fa576000816000905550600101620001e0565b5090565b6000604051905090565b600080fd5b600080fd5b600080fd5b600080fd5b6000601f19601f8301169050919050565b7f4e487b7100000000000000000000000000000000000000000000000000000000600052604160045260246000fd5b62000267826200021c565b810181811067ffffffffffffffff821117156200028957620002886200022d565b5b80604052505050565b60006200029e620001fe565b9050620002ac82826200025c565b919050565b600067ffffffffffffffff821115620002cf57620002ce6200022d565b5b620002da826200021c565b9050602081019050919050565b60005b8381101562000307578082015181840152602081019050620002ea565b8381111562000317576000848401525b50505050565b6000620003346200032e84620002b1565b62000292565b90508281526020810184848401111562000353576200035262000217565b5b62000360848285620002e7565b509392505050565b600082601f83011262000380576200037f62000212565b5b8151620003928482602086016200031d565b91505092915050565b600073ffffffffffffffffffffffffffffffffffffffff82169050919050565b6000620003c8826200039b565b9050919050565b620003da81620003bb565b8114620003e657600080fd5b50565b600081519050620003fa81620003cf565b92915050565b600080600080608085870312156200041d576200041c62000208565b5b600085015167ffffffffffffffff8111156200043e576200043d6200020d565b5b6200044c8782880162000368565b945050602085015167ffffffffffffffff81111562000470576200046f6200020d565b5b6200047e8782880162000368565b935050604085015167ffffffffffffffff811115620004a257620004a16200020d565b5b620004b08782880162000368565b9250506060620004c387828801620003e9565b91505092959194509250565b7f4e487b7100000000000000000000000000000000000000000000000000000000600052602260045260246000fd5b600060028204905060018216806200051757607f821691505b6020821081036200052d576200052c620004cf565b5b50919050565b61313a80620005436000396000f3fe608060405234801561001057600080fd5b506004361061012c5760003560e01c80636352211e116100ad578063b47cc55611610071578063b47cc55614610369578063b7802a2114610385578063b88d4fde146103a1578063c87b56dd146103bd578063e985e9c5146103ed5761012c565b80636352211e1461029f5780636a627842146102cf57806370a08231146102ff57806395d89b411461032f578063a22cb4651461034d5761012c565b806323b872dd116100f457806323b872dd146101e95780632d5537b0146102055780632f745c591461022357806342842e0e146102535780634f6ccce71461026f5761012c565b806301ffc9a71461013157806306fdde0314610161578063081812fc1461017f578063095ea7b3146101af57806318160ddd146101cb575b600080fd5b61014b60048036038101906101469190611ecb565b61041d565b6040516101589190611f13565b60405180910390f35b610169610497565b6040516101769190611fc7565b60405180910390f35b6101996004803603810190610194919061201f565b610529565b6040516101a6919061208d565b60405180910390f35b6101c960048036038101906101c491906120d4565b6105ae565b005b6101d36106c5565b6040516101e09190612123565b60405180910390f35b61020360048036038101906101fe919061213e565b6106d2565b005b61020d61072b565b60405161021a9190611fc7565b60405180910390f35b61023d600480360381019061023891906120d4565b6107b9565b60405161024a9190612123565b60405180910390f35b61026d6004803603810190610268919061213e565b61085e565b005b6102896004803603810190610284919061201f565b61087e565b6040516102969190612123565b60405180910390f35b6102b960048036038101906102b4919061201f565b6108ef565b6040516102c6919061208d565b60405180910390f35b6102e960048036038101906102e49190612191565b6109a0565b6040516102f69190612123565b60405180910390f35b61031960048036038101906103149190612191565b610a0e565b6040516103269190612123565b60405180910390f35b610337610ac5565b6040516103449190611fc7565b60405180910390f35b610367600480360381019061036291906121ea565b610b57565b005b610383600480360381019061037e9190612191565b610b88565b005b61039f600480360381019061039a9190612191565b610bcc565b005b6103bb60048036038101906103b6919061235f565b610c10565b005b6103d760048036038101906103d2919061201f565b610c72565b6040516103e49190611fc7565b60405180910390f35b610407600480360381019061040291906123e2565b610d1d565b6040516104149190611f13565b60405180910390f35b60007f780e9d63000000000000000000000000000000000000000000000000000000007bffffffffffffffffffffffffffffffffffffffffffffffffffffffff1916827bffffffffffffffffffffffffffffffffffffffffffffffffffffffff19161480610490575061048f82610db1565b5b9050919050565b6060600080546104a690612451565b80601f01602080910402602001604051908101604052809291908181526020018280546104d290612451565b801561051f5780601f106104f45761010080835404028352916020019161051f565b820191906000526020600020905b81548152906001019060200180831161050257829003601f168201915b5050505050905090565b600061053482610e93565b610573576040517f08c379a000000000000000000000000000000000000000000000000000000000815260040161056a906124f4565b60405180910390fd5b6004600083815260200190815260200160002060009054906101000a900473ffffffffffffffffffffffffffffffffffffffff169050919050565b60006105b9826108ef565b90508073ffffffffffffffffffffffffffffffffffffffff168373ffffffffffffffffffffffffffffffffffffffff1603610629576040517f08c379a000000000000000000000000000000000000000000000000000000000815260040161062090612586565b60405180910390fd5b8073ffffffffffffffffffffffffffffffffffffffff16610648610eff565b73ffffffffffffffffffffffffffffffffffffffff161480610677575061067681610671610eff565b610d1d565b5b6106b6576040517f08c379a00000000000000000000000000000000000000000000000000000000081526004016106ad90612618565b60405180910390fd5b6106c08383610f07565b505050565b6000600880549050905090565b6106dc8382610fc0565b61071b576040517f08c379a0000000000000000000000000000000000000000000000000000000008152600401610712906126aa565b60405180910390fd5b61072683838361109e565b505050565b600a805461073890612451565b80601f016020809104026020016040519081016040528092919081815260200182805461076490612451565b80156107b15780601f10610786576101008083540402835291602001916107b1565b820191906000526020600020905b81548152906001019060200180831161079457829003601f168201915b505050505081565b60006107c483610a0e565b8210610805576040517f08c379a00000000000000000000000000000000000000000000000000000000081526004016107fc9061273c565b60405180910390fd5b600660008473ffffffffffffffffffffffffffffffffffffffff1673ffffffffffffffffffffffffffffffffffffffff168152602001908152602001600020600083815260200190815260200160002054905092915050565b61087983838360405180602001604052806000815250610c10565b505050565b60006108886106c5565b82106108c9576040517f08c379a00000000000000000000000000000000000000000000000000000000081526004016108c0906127ce565b60405180910390fd5b600882815481106108dd576108dc6127ee565b5b90600052602060002001549050919050565b6000806002600084815260200190815260200160002060009054906101000a900473ffffffffffffffffffffffffffffffffffffffff169050600073ffffffffffffffffffffffffffffffffffffffff168173ffffffffffffffffffffffffffffffffffffffff1603610997576040517f08c379a000000000000000000000000000000000000000000000000000000000815260040161098e9061288f565b60405180910390fd5b80915050919050565b60006109ac600e611304565b60006109b8600e61131a565b905082600f60006101000a81548173ffffffffffffffffffffffffffffffffffffffff021916908373ffffffffffffffffffffffffffffffffffffffff160217905550610a058382611328565b80915050919050565b60008073ffffffffffffffffffffffffffffffffffffffff168273ffffffffffffffffffffffffffffffffffffffff1603610a7e576040517f08c379a0000000000000000000000000000000000000000000000000000000008152600401610a7590612921565b60405180910390fd5b600360008373ffffffffffffffffffffffffffffffffffffffff1673ffffffffffffffffffffffffffffffffffffffff168152602001908152602001600020549050919050565b606060018054610ad490612451565b80601f0160208091040260200160405190810160405280929190818152602001828054610b0090612451565b8015610b4d5780601f10610b2257610100808354040283529160200191610b4d565b820191906000526020600020905b815481529060010190602001808311610b3057829003601f168201915b5050505050905090565b610b84600d60009054906101000a900473ffffffffffffffffffffffffffffffffffffffff168383611501565b5050565b80600c60006101000a81548173ffffffffffffffffffffffffffffffffffffffff021916908373ffffffffffffffffffffffffffffffffffffffff16021790555050565b80600d60006101000a81548173ffffffffffffffffffffffffffffffffffffffff021916908373ffffffffffffffffffffffffffffffffffffffff16021790555050565b610c21610c1b610eff565b83610fc0565b610c60576040517f08c379a0000000000000000000000000000000000000000000000000000000008152600401610c57906126aa565b60405180910390fd5b610c6c8484848461166d565b50505050565b6060610c7d82610e93565b610cbc576040517f08c379a0000000000000000000000000000000000000000000000000000000008152600401610cb3906129b3565b60405180910390fd5b6000600b8054610ccb90612451565b905011610ce75760405180602001604052806000815250610d16565b600b610cf2836116c9565b600a604051602001610d0693929190612aa3565b6040516020818303038152906040525b9050919050565b6000600560008473ffffffffffffffffffffffffffffffffffffffff1673ffffffffffffffffffffffffffffffffffffffff16815260200190815260200160002060008373ffffffffffffffffffffffffffffffffffffffff1673ffffffffffffffffffffffffffffffffffffffff16815260200190815260200160002060009054906101000a900460ff16905092915050565b60007f80ac58cd000000000000000000000000000000000000000000000000000000007bffffffffffffffffffffffffffffffffffffffffffffffffffffffff1916827bffffffffffffffffffffffffffffffffffffffffffffffffffffffff19161480610e7c57507f5b5e139f000000000000000000000000000000000000000000000000000000007bffffffffffffffffffffffffffffffffffffffffffffffffffffffff1916827bffffffffffffffffffffffffffffffffffffffffffffffffffffffff1916145b80610e8c5750610e8b82611829565b5b9050919050565b60008073ffffffffffffffffffffffffffffffffffffffff166002600084815260200190815260200160002060009054906101000a900473ffffffffffffffffffffffffffffffffffffffff1673ffffffffffffffffffffffffffffffffffffffff1614159050919050565b600033905090565b816004600083815260200190815260200160002060006101000a81548173ffffffffffffffffffffffffffffffffffffffff021916908373ffffffffffffffffffffffffffffffffffffffff160217905550808273ffffffffffffffffffffffffffffffffffffffff16610f7a836108ef565b73ffffffffffffffffffffffffffffffffffffffff167f8c5be1e5ebec7d5bd14f71427d1e84f3dd0314c0f7b2291e5b200ac8c7c3b92560405160405180910390a45050565b6000610fcb82610e93565b61100a576040517f08c379a000000000000000000000000000000000000000000000000000000000815260040161100190612b46565b60405180910390fd5b6000611015836108ef565b90508073ffffffffffffffffffffffffffffffffffffffff168473ffffffffffffffffffffffffffffffffffffffff16148061105757506110568185610d1d565b5b8061109557508373ffffffffffffffffffffffffffffffffffffffff1661107d84610529565b73ffffffffffffffffffffffffffffffffffffffff16145b91505092915050565b8273ffffffffffffffffffffffffffffffffffffffff166110be826108ef565b73ffffffffffffffffffffffffffffffffffffffff1614611114576040517f08c379a000000000000000000000000000000000000000000000000000000000815260040161110b90612bd8565b60405180910390fd5b600073ffffffffffffffffffffffffffffffffffffffff168273ffffffffffffffffffffffffffffffffffffffff1603611183576040517f08c379a000000000000000000000000000000000000000000000000000000000815260040161117a90612c6a565b60405180910390fd5b61118e838383611893565b611199600082610f07565b6001600360008573ffffffffffffffffffffffffffffffffffffffff1673ffffffffffffffffffffffffffffffffffffffff16815260200190815260200160002060008282546111e99190612cb9565b925050819055506001600360008473ffffffffffffffffffffffffffffffffffffffff1673ffffffffffffffffffffffffffffffffffffffff16815260200190815260200160002060008282546112409190612ced565b92505081905550816002600083815260200190815260200160002060006101000a81548173ffffffffffffffffffffffffffffffffffffffff021916908373ffffffffffffffffffffffffffffffffffffffff160217905550808273ffffffffffffffffffffffffffffffffffffffff168473ffffffffffffffffffffffffffffffffffffffff167fddf252ad1be2c89b69c2b068fc378daa952ba7f163c4a11628f55a4df523b3ef60405160405180910390a46112ff8383836119a5565b505050565b6001816000016000828254019250508190555050565b600081600001549050919050565b600073ffffffffffffffffffffffffffffffffffffffff168273ffffffffffffffffffffffffffffffffffffffff1603611397576040517f08c379a000000000000000000000000000000000000000000000000000000000815260040161138e90612d8f565b60405180910390fd5b6113a081610e93565b156113e0576040517f08c379a00000000000000000000000000000000000000000000000000000000081526004016113d790612dfb565b60405180910390fd5b6113ec60008383611893565b6001600360008473ffffffffffffffffffffffffffffffffffffffff1673ffffffffffffffffffffffffffffffffffffffff168152602001908152602001600020600082825461143c9190612ced565b92505081905550816002600083815260200190815260200160002060006101000a81548173ffffffffffffffffffffffffffffffffffffffff021916908373ffffffffffffffffffffffffffffffffffffffff160217905550808273ffffffffffffffffffffffffffffffffffffffff16600073ffffffffffffffffffffffffffffffffffffffff167fddf252ad1be2c89b69c2b068fc378daa952ba7f163c4a11628f55a4df523b3ef60405160405180910390a46114fd600083836119a5565b5050565b8173ffffffffffffffffffffffffffffffffffffffff168373ffffffffffffffffffffffffffffffffffffffff160361156f576040517f08c379a000000000000000000000000000000000000000000000000000000000815260040161156690612e67565b60405180910390fd5b80600560008573ffffffffffffffffffffffffffffffffffffffff1673ffffffffffffffffffffffffffffffffffffffff16815260200190815260200160002060008473ffffffffffffffffffffffffffffffffffffffff1673ffffffffffffffffffffffffffffffffffffffff16815260200190815260200160002060006101000a81548160ff0219169083151502179055508173ffffffffffffffffffffffffffffffffffffffff168373ffffffffffffffffffffffffffffffffffffffff167f17307eab39ab6107e8899845ad3d59bd9653f200f220920489ca2b5937696c31836040516116609190611f13565b60405180910390a3505050565b61167884848461109e565b611684848484846119aa565b6116c3576040517f08c379a00000000000000000000000000000000000000000000000000000000081526004016116ba90612ef9565b60405180910390fd5b50505050565b606060008203611710576040518060400160405280600181526020017f30000000000000000000000000000000000000000000000000000000000000008152509050611824565b600082905060005b6000821461174257808061172b90612f19565b915050600a8261173b9190612f90565b9150611718565b60008167ffffffffffffffff81111561175e5761175d612234565b5b6040519080825280601f01601f1916602001820160405280156117905781602001600182028036833780820191505090505b5090505b6000851461181d576001826117a99190612cb9565b9150600a856117b89190612fc1565b60306117c49190612ced565b60f81b8183815181106117da576117d96127ee565b5b60200101907effffffffffffffffffffffffffffffffffffffffffffffffffffffffffffff1916908160001a905350600a856118169190612f90565b9450611794565b8093505050505b919050565b60007f01ffc9a7000000000000000000000000000000000000000000000000000000007bffffffffffffffffffffffffffffffffffffffffffffffffffffffff1916827bffffffffffffffffffffffffffffffffffffffffffffffffffffffff1916149050919050565b61189e838383611b31565b600073ffffffffffffffffffffffffffffffffffffffff168373ffffffffffffffffffffffffffffffffffffffff16036118e0576118db81611b36565b61191f565b8173ffffffffffffffffffffffffffffffffffffffff168373ffffffffffffffffffffffffffffffffffffffff161461191e5761191d8382611b7f565b5b5b600073ffffffffffffffffffffffffffffffffffffffff168273ffffffffffffffffffffffffffffffffffffffff16036119615761195c81611cec565b6119a0565b8273ffffffffffffffffffffffffffffffffffffffff168273ffffffffffffffffffffffffffffffffffffffff161461199f5761199e8282611dbd565b5b5b505050565b505050565b60006119cb8473ffffffffffffffffffffffffffffffffffffffff16611e3c565b15611b24578373ffffffffffffffffffffffffffffffffffffffff1663150b7a026119f4610eff565b8786866040518563ffffffff1660e01b8152600401611a169493929190613047565b6020604051808303816000875af1925050508015611a5257506040513d601f19601f82011682018060405250810190611a4f91906130a8565b60015b611ad4573d8060008114611a82576040519150601f19603f3d011682016040523d82523d6000602084013e611a87565b606091505b506000815103611acc576040517f08c379a0000000000000000000000000000000000000000000000000000000008152600401611ac390612ef9565b60405180910390fd5b805181602001fd5b63150b7a0260e01b7bffffffffffffffffffffffffffffffffffffffffffffffffffffffff1916817bffffffffffffffffffffffffffffffffffffffffffffffffffffffff191614915050611b29565b600190505b949350505050565b505050565b6008805490506009600083815260200190815260200160002081905550600881908060018154018082558091505060019003906000526020600020016000909190919091505550565b60006001611b8c84610a0e565b611b969190612cb9565b9050600060076000848152602001908152602001600020549050818114611c7b576000600660008673ffffffffffffffffffffffffffffffffffffffff1673ffffffffffffffffffffffffffffffffffffffff168152602001908152602001600020600084815260200190815260200160002054905080600660008773ffffffffffffffffffffffffffffffffffffffff1673ffffffffffffffffffffffffffffffffffffffff168152602001908152602001600020600084815260200190815260200160002081905550816007600083815260200190815260200160002081905550505b6007600084815260200190815260200160002060009055600660008573ffffffffffffffffffffffffffffffffffffffff1673ffffffffffffffffffffffffffffffffffffffff16815260200190815260200160002060008381526020019081526020016000206000905550505050565b60006001600880549050611d009190612cb9565b9050600060096000848152602001908152602001600020549050600060088381548110611d3057611d2f6127ee565b5b906000526020600020015490508060088381548110611d5257611d516127ee565b5b906000526020600020018190555081600960008381526020019081526020016000208190555060096000858152602001908152602001600020600090556008805480611da157611da06130d5565b5b6001900381819060005260206000200160009055905550505050565b6000611dc883610a0e565b905081600660008573ffffffffffffffffffffffffffffffffffffffff1673ffffffffffffffffffffffffffffffffffffffff168152602001908152602001600020600083815260200190815260200160002081905550806007600084815260200190815260200160002081905550505050565b6000808273ffffffffffffffffffffffffffffffffffffffff163b119050919050565b6000604051905090565b600080fd5b600080fd5b60007fffffffff0000000000000000000000000000000000000000000000000000000082169050919050565b611ea881611e73565b8114611eb357600080fd5b50565b600081359050611ec581611e9f565b92915050565b600060208284031215611ee157611ee0611e69565b5b6000611eef84828501611eb6565b91505092915050565b60008115159050919050565b611f0d81611ef8565b82525050565b6000602082019050611f286000830184611f04565b92915050565b600081519050919050565b600082825260208201905092915050565b60005b83811015611f68578082015181840152602081019050611f4d565b83811115611f77576000848401525b50505050565b6000601f19601f8301169050919050565b6000611f9982611f2e565b611fa38185611f39565b9350611fb3818560208601611f4a565b611fbc81611f7d565b840191505092915050565b60006020820190508181036000830152611fe18184611f8e565b905092915050565b6000819050919050565b611ffc81611fe9565b811461200757600080fd5b50565b60008135905061201981611ff3565b92915050565b60006020828403121561203557612034611e69565b5b60006120438482850161200a565b91505092915050565b600073ffffffffffffffffffffffffffffffffffffffff82169050919050565b60006120778261204c565b9050919050565b6120878161206c565b82525050565b60006020820190506120a2600083018461207e565b92915050565b6120b18161206c565b81146120bc57600080fd5b50565b6000813590506120ce816120a8565b92915050565b600080604083850312156120eb576120ea611e69565b5b60006120f9858286016120bf565b925050602061210a8582860161200a565b9150509250929050565b61211d81611fe9565b82525050565b60006020820190506121386000830184612114565b92915050565b60008060006060848603121561215757612156611e69565b5b6000612165868287016120bf565b9350506020612176868287016120bf565b92505060406121878682870161200a565b9150509250925092565b6000602082840312156121a7576121a6611e69565b5b60006121b5848285016120bf565b91505092915050565b6121c781611ef8565b81146121d257600080fd5b50565b6000813590506121e4816121be565b92915050565b6000806040838503121561220157612200611e69565b5b600061220f858286016120bf565b9250506020612220858286016121d5565b9150509250929050565b600080fd5b600080fd5b7f4e487b7100000000000000000000000000000000000000000000000000000000600052604160045260246000fd5b61226c82611f7d565b810181811067ffffffffffffffff8211171561228b5761228a612234565b5b80604052505050565b600061229e611e5f565b90506122aa8282612263565b919050565b600067ffffffffffffffff8211156122ca576122c9612234565b5b6122d382611f7d565b9050602081019050919050565b82818337600083830152505050565b60006123026122fd846122af565b612294565b90508281526020810184848401111561231e5761231d61222f565b5b6123298482856122e0565b509392505050565b600082601f8301126123465761234561222a565b5b81356123568482602086016122ef565b91505092915050565b6000806000806080858703121561237957612378611e69565b5b6000612387878288016120bf565b9450506020612398878288016120bf565b93505060406123a98782880161200a565b925050606085013567ffffffffffffffff8111156123ca576123c9611e6e565b5b6123d687828801612331565b91505092959194509250565b600080604083850312156123f9576123f8611e69565b5b6000612407858286016120bf565b9250506020612418858286016120bf565b9150509250929050565b7f4e487b7100000000000000000000000000000000000000000000000000000000600052602260045260246000fd5b6000600282049050600182168061246957607f821691505b60208210810361247c5761247b612422565b5b50919050565b7f4552433732313a20617070726f76656420717565727920666f72206e6f6e657860008201527f697374656e7420746f6b656e0000000000000000000000000000000000000000602082015250565b60006124de602c83611f39565b91506124e982612482565b604082019050919050565b6000602082019050818103600083015261250d816124d1565b9050919050565b7f4552433732313a20617070726f76616c20746f2063757272656e74206f776e6560008201527f7200000000000000000000000000000000000000000000000000000000000000602082015250565b6000612570602183611f39565b915061257b82612514565b604082019050919050565b6000602082019050818103600083015261259f81612563565b9050919050565b7f4552433732313a20617070726f76652063616c6c6572206973206e6f74206f7760008201527f6e6572206e6f7220617070726f76656420666f7220616c6c0000000000000000602082015250565b6000612602603883611f39565b915061260d826125a6565b604082019050919050565b60006020820190508181036000830152612631816125f5565b9050919050565b7f4552433732313a207472616e736665722063616c6c6572206973206e6f74206f60008201527f776e6572206e6f7220617070726f766564000000000000000000000000000000602082015250565b6000612694603183611f39565b915061269f82612638565b604082019050919050565b600060208201905081810360008301526126c381612687565b9050919050565b7f455243373231456e756d657261626c653a206f776e657220696e646578206f7560008201527f74206f6620626f756e6473000000000000000000000000000000000000000000602082015250565b6000612726602b83611f39565b9150612731826126ca565b604082019050919050565b6000602082019050818103600083015261275581612719565b9050919050565b7f455243373231456e756d657261626c653a20676c6f62616c20696e646578206f60008201527f7574206f6620626f756e64730000000000000000000000000000000000000000602082015250565b60006127b8602c83611f39565b91506127c38261275c565b604082019050919050565b600060208201905081810360008301526127e7816127ab565b9050919050565b7f4e487b7100000000000000000000000000000000000000000000000000000000600052603260045260246000fd5b7f4552433732313a206f776e657220717565727920666f72206e6f6e657869737460008201527f656e7420746f6b656e0000000000000000000000000000000000000000000000602082015250565b6000612879602983611f39565b91506128848261281d565b604082019050919050565b600060208201905081810360008301526128a88161286c565b9050919050565b7f4552433732313a2062616c616e636520717565727920666f7220746865207a6560008201527f726f206164647265737300000000000000000000000000000000000000000000602082015250565b600061290b602a83611f39565b9150612916826128af565b604082019050919050565b6000602082019050818103600083015261293a816128fe565b9050919050565b7f4552433732314d657461646174613a2055524920717565727920666f72206e6f60008201527f6e6578697374656e7420746f6b656e0000000000000000000000000000000000602082015250565b600061299d602f83611f39565b91506129a882612941565b604082019050919050565b600060208201905081810360008301526129cc81612990565b9050919050565b600081905092915050565b60008190508160005260206000209050919050565b60008154612a0081612451565b612a0a81866129d3565b94506001821660008114612a255760018114612a3657612a69565b60ff19831686528186019350612a69565b612a3f856129de565b60005b83811015612a6157815481890152600182019150602081019050612a42565b838801955050505b50505092915050565b6000612a7d82611f2e565b612a8781856129d3565b9350612a97818560208601611f4a565b80840191505092915050565b6000612aaf82866129f3565b9150612abb8285612a72565b9150612ac782846129f3565b9150819050949350505050565b7f4552433732313a206f70657261746f7220717565727920666f72206e6f6e657860008201527f697374656e7420746f6b656e0000000000000000000000000000000000000000602082015250565b6000612b30602c83611f39565b9150612b3b82612ad4565b604082019050919050565b60006020820190508181036000830152612b5f81612b23565b9050919050565b7f4552433732313a207472616e736665722066726f6d20696e636f72726563742060008201527f6f776e6572000000000000000000000000000000000000000000000000000000602082015250565b6000612bc2602583611f39565b9150612bcd82612b66565b604082019050919050565b60006020820190508181036000830152612bf181612bb5565b9050919050565b7f4552433732313a207472616e7366657220746f20746865207a65726f2061646460008201527f7265737300000000000000000000000000000000000000000000000000000000602082015250565b6000612c54602483611f39565b9150612c5f82612bf8565b604082019050919050565b60006020820190508181036000830152612c8381612c47565b9050919050565b7f4e487b7100000000000000000000000000000000000000000000000000000000600052601160045260246000fd5b6000612cc482611fe9565b9150612ccf83611fe9565b925082821015612ce257612ce1612c8a565b5b828203905092915050565b6000612cf882611fe9565b9150612d0383611fe9565b9250827fffffffffffffffffffffffffffffffffffffffffffffffffffffffffffffffff03821115612d3857612d37612c8a565b5b828201905092915050565b7f4552433732313a206d696e7420746f20746865207a65726f2061646472657373600082015250565b6000612d79602083611f39565b9150612d8482612d43565b602082019050919050565b60006020820190508181036000830152612da881612d6c565b9050919050565b7f4552433732313a20746f6b656e20616c7265616479206d696e74656400000000600082015250565b6000612de5601c83611f39565b9150612df082612daf565b602082019050919050565b60006020820190508181036000830152612e1481612dd8565b9050919050565b7f4552433732313a20617070726f766520746f2063616c6c657200000000000000600082015250565b6000612e51601983611f39565b9150612e5c82612e1b565b602082019050919050565b60006020820190508181036000830152612e8081612e44565b9050919050565b7f4552433732313a207472616e7366657220746f206e6f6e20455243373231526560008201527f63656976657220696d706c656d656e7465720000000000000000000000000000602082015250565b6000612ee3603283611f39565b9150612eee82612e87565b604082019050919050565b60006020820190508181036000830152612f1281612ed6565b9050919050565b6000612f2482611fe9565b91507fffffffffffffffffffffffffffffffffffffffffffffffffffffffffffffffff8203612f5657612f55612c8a565b5b600182019050919050565b7f4e487b7100000000000000000000000000000000000000000000000000000000600052601260045260246000fd5b6000612f9b82611fe9565b9150612fa683611fe9565b925082612fb657612fb5612f61565b5b828204905092915050565b6000612fcc82611fe9565b9150612fd783611fe9565b925082612fe757612fe6612f61565b5b828206905092915050565b600081519050919050565b600082825260208201905092915050565b600061301982612ff2565b6130238185612ffd565b9350613033818560208601611f4a565b61303c81611f7d565b840191505092915050565b600060808201905061305c600083018761207e565b613069602083018661207e565b6130766040830185612114565b8181036060830152613088818461300e565b905095945050505050565b6000815190506130a281611e9f565b92915050565b6000602082840312156130be576130bd611e69565b5b60006130cc84828501613093565b91505092915050565b7f4e487b7100000000000000000000000000000000000000000000000000000000600052603160045260246000fdfea26469706673582212206680ff6e696482a00f122fa343d863552fe07251abd792f10e218f09ccb7fa4664736f6c634300080d0033",
  "immutableReferences": {},
  "source": "// SPDX-License-Identifier: MIT\n// OpenZeppelin Contracts (last updated v4.6.0) (token/ERC721/ERC721.sol)\n\n/* renvoie le tokenUri en fonction de id du token\n dans la fonction _mint, la fonction _setTokenURI cre la correspondance  id <-> uri */\n// ipfs://ipfs/QmWpgK9kZNokMgLWSe8PSwN7FS4KgHuzBerRaYkMFyaST2/creerParMoiDatacopy\n// /ipfs/QmWpgK9kZNokMgLWSe8PSwN7FS4KgHuzBerRaYkMFyaST2/creerParMoiDatacopy1.json\n\npragma solidity 0.8.13;\n\n// import 'https://github.com/OpenZeppelin/openzeppelin-contracts/blob/master/contracts/token/ERC721/extensions/ERC721Enumerable.sol';\n// import'https://github.com/OpenZeppelin/openzeppelin-contracts/blob/master/contracts/access/Ownable.sol';\n\nimport \"@openzeppelin/contracts/token/ERC721/extensions/ERC721Enumerable.sol\";\n// import \"@openzeppelin/contracts/access/Ownable.sol\";\n\n// 1 appel du contrat ERC721.sol\n// import 'https://github.com/OpenZeppelin/openzeppelin-contracts/blob/master/contracts/token/ERC721/ERC721.sol';\n// 2 pour incrmenter u n id a chaque qu'on cre un token\n// import'https://github.com/OpenZeppelin/openzeppelin-contracts/blob/master/contracts/utils/Counters.sol';\nimport \"@openzeppelin/contracts/utils/Counters.sol\";\n// 6\n// import'https://github.com/OpenZeppelin/openzeppelin-contracts/blob/master/contracts/token/ERC721/extensions/ERC721URIStorage.sol';\nimport \"@openzeppelin/contracts/token/ERC721/extensions/ERC721URIStorage.sol\";\n// import'https://github.com/OpenZeppelin/openzeppelin-contracts/blob/master/contracts/utils/Strings.sol';\nimport \"@openzeppelin/contracts/utils/Strings.sol\";\n\n//   using Counters for Counters.Counter; // Counter structure uint contenue dans la librairie Counters du fichier import Counter.sol\n\n//    Counters.Counter private idArticles; // cration du compteur idArticles\n\n// ERC721URIStorage,\n\ncontract MonNft is ERC721Enumerable {\n    using Strings for uint256;\n    event CreatedURI(string _realisedURI, uint256 _tokenId);\n    string public extension = \".json\";\n    // uint256 public maxSupply= 20;\n    string _baseCollectionURI;\n    address _marketPlaceAdress; // = MARKETPLACE ADDRESS;\n    address MsgSenderAddress;\n    bool _approved = true;\n    // bool public contractEnPause = true; // front pour hidden collection\n    // bool public _AffCollection = false; // front pour hidden collection\n\n    using Counters for Counters.Counter; // Counter structure uint contenue dans la librairie Counters du fichier import Counter.sol\n\n    Counters.Counter private _tokenId; // cration du compteur idArticles\n\n    constructor(\n        string memory _Collectionname,\n        string memory _Collectionsymbol,\n        string memory _CollectionBaseUri,\n        address _marketplaceAddres\n    ) ERC721(_Collectionname, _Collectionsymbol) {\n        _baseCollectionURI = _CollectionBaseUri;\n        setMarketplaceAddress(_marketplaceAddres);\n    }\n\n    function setMarketplaceAddress(address _marketplaceAddres) public {\n        _marketPlaceAdress = _marketplaceAddres;\n    }\n\n    function setAddressToMsgSenderOfListTokenFromMarketPlaceContract(\n        address _MsgSenderAddress\n    ) public {\n        MsgSenderAddress = _MsgSenderAddress;\n    }\n\n    // Remplacer NFTcreators par une variable dynamique\n    function setApprovalForAll(address operator, bool approved)\n        public\n        virtual\n        override(ERC721, IERC721)\n    {\n        _setApprovalForAll(MsgSenderAddress, operator, approved);\n    }\n\n    function transferFrom(\n        address from,\n        address to,\n        uint256 tokenId\n    ) public virtual override(ERC721, IERC721) {\n        //solhint-disable-next-line max-line-length\n        require(\n            _isApprovedOrOwner(from, tokenId),\n            \"ERC721: transfer caller is not owner nor approved\"\n        );\n\n        _transfer(from, to, tokenId);\n    }\n\n    address NFTcreators;\n\n    function mint(address ownerOfNFTContratIs) public returns (uint256) {\n        _tokenId.increment();\n        uint256 id = _tokenId.current();\n        NFTcreators = ownerOfNFTContratIs;\n        _mint(ownerOfNFTContratIs, id);\n        return (id);\n        // string memory _uri;\n        // require(!contractEnPause,\"Attendre l'ouverture de la creation\");\n        // _uri= tokenURI(id);\n        // _setTokenURI(id, _uri);\n        // Collection[id]=Article(id,msg.sender,_uri, _prix,address(0));\n        // }\n    }\n\n    // fonction qui retourne  partir de l'index , un tableau du nombre de  token dtenus par un propritaire\n    // function walletOfowner(address _owner) view public returns(uint256[] memory) {\n\n    //     // balance des tokens du propritaire\n    //     uint256 ownerTokenCount;\n    //     ownerTokenCount= balanceOf(_owner);\n\n    //     // on veut faire correspondre la balance du owner  partir de l'index\n    //     uint256[] memory tokenIds= new uint256[](ownerTokenCount);\n\n    //        for (uint256 i; i <= ownerTokenCount; i++){\n    //     tokenIds[i]= tokenOfOwnerByIndex(_owner,i);\n    // }\n\n    // return tokenIds;\n    // }\n\n    /**   BaseURI\n     * @dev Base URI for computing {tokenURI}. If set, the resulting URI for each\n     * token will be the concatenation of the `baseURI` and the `tokenId`. Empty\n     * by default, can be overridden in child contracts.\n     */\n    // function _baseURI(string memory _collectionbaseURI) internal view virtual override returns (string memory) {\n\n    //     return baseURI;\n    // }\n\n    // fonction de modification baseURI\n    // function _setBaseURI(string memory _baseUri)public onlyOwner {\n    //     baseURI = _baseUri;\n    // }\n\n    /**   Vient de URIstorage.sol\n     * @dev Sets `_tokenURI` as the tokenURI of `tokenId`.\n     *\n     * Requirements:\n     *\n     * - `tokenId` must exist.\n     */\n    // function _setTokenURI(uint256 tokenId, string memory _tokenURI) internal virtual {\n    //     require(_exists(tokenId), \"ERC721URIStorage: URI set of nonexistent token\");\n    //     _tokenURIs[tokenId] = _tokenURI;\n    // }\n\n    // renvoie le uri du token\n    function tokenURI(uint256 tokenId)\n        public\n        view\n        virtual\n        override\n        returns (string memory)\n    {\n        require(\n            _exists(tokenId),\n            \"ERC721Metadata: URI query for nonexistent token\"\n        );\n\n        // if (_AffCollection==false){\n\n        //     return imageCachee;\n        // }\n        // localisation de l'image dans l'ipfs\n\n        return (\n            bytes(_baseCollectionURI).length > 0\n                ? string(\n                    abi.encodePacked(\n                        _baseCollectionURI,\n                        tokenId.toString(),\n                        extension\n                    )\n                )\n                : \"\"\n        );\n\n        //  return bytes(actual).length > 0 ? string(abi.encodePacked(actual, tokenId.toString(), extension)) : \"\";\n    }\n\n    // pour autorisation affichage collection only owner\n    // function EnabledAff()public onlyOwner {\n    //         _AffCollection=true;\n\n    // }\n\n    // pour cacher affichage collection only owner\n    // function DisabledAff()public onlyOwner {\n    //         _AffCollection=false;\n\n    // }\n\n    // pour fixer le nombre de nft max qu'on peut minter\n    // function upgradeMintAmount(uint256 _mintAmount) public onlyOwner {\n    //     maxMinter = _mintAmount;\n    // }\n\n    // image gnrique qui s'affiche avant l'ouverture de la vente de la collection\n    // function setImageCachee(string memory _imageCachee) public onlyOwner{\n\n    //     imageCachee = _imageCachee;\n\n    // }\n\n    // le contrat est mis en pause,  ce qui permet au owner d'administrer ses nft, prix, nombre de mint que peut faire un acheteur\n    // function ActiverContract(bool _contractEnPause) public onlyOwner {\n    //     contractEnPause = _contractEnPause;\n\n    // }\n}\n",
  "sourcePath": "/Users/mamadouseck/Desktop/alyra-projet4/truffle/contracts/MyNFT.sol",
  "compiler": {
    "name": "solc",
    "version": "0.8.13+commit.abaa5c0e.Emscripten.clang"
  },
  "schemaVersion": "3.4.7",
  "updatedAt": "2022-05-16T20:59:08.680Z",
  "devdoc": {
    "kind": "dev",
    "methods": {
      "approve(address,uint256)": {
        "details": "See {IERC721-approve}."
      },
      "balanceOf(address)": {
        "details": "See {IERC721-balanceOf}."
      },
      "getApproved(uint256)": {
        "details": "See {IERC721-getApproved}."
      },
      "isApprovedForAll(address,address)": {
        "details": "See {IERC721-isApprovedForAll}."
      },
      "name()": {
        "details": "See {IERC721Metadata-name}."
      },
      "ownerOf(uint256)": {
        "details": "See {IERC721-ownerOf}."
      },
      "safeTransferFrom(address,address,uint256)": {
        "details": "See {IERC721-safeTransferFrom}."
      },
      "safeTransferFrom(address,address,uint256,bytes)": {
        "details": "See {IERC721-safeTransferFrom}."
      },
      "supportsInterface(bytes4)": {
        "details": "See {IERC165-supportsInterface}."
      },
      "symbol()": {
        "details": "See {IERC721Metadata-symbol}."
      },
      "tokenByIndex(uint256)": {
        "details": "See {IERC721Enumerable-tokenByIndex}."
      },
      "tokenOfOwnerByIndex(address,uint256)": {
        "details": "See {IERC721Enumerable-tokenOfOwnerByIndex}."
      },
      "tokenURI(uint256)": {
        "details": "Sets `_tokenURI` as the tokenURI of `tokenId`. Requirements: - `tokenId` must exist."
      },
      "totalSupply()": {
        "details": "See {IERC721Enumerable-totalSupply}."
      }
    },
    "version": 1
  },
  "userdoc": {
    "kind": "user",
    "methods": {
      "tokenURI(uint256)": {
        "notice": "Vient de URIstorage.sol"
      }
    },
    "version": 1
  }
}