{
  "contractName": "NFTMarket",
  "abi": [
    {
      "inputs": [],
      "stateMutability": "nonpayable",
      "type": "constructor"
    },
    {
      "anonymous": false,
      "inputs": [
        {
          "indexed": true,
          "internalType": "uint256",
          "name": "itemId",
          "type": "uint256"
        },
        {
          "indexed": true,
          "internalType": "address",
          "name": "nftContract",
          "type": "address"
        },
        {
          "indexed": true,
          "internalType": "uint256",
          "name": "tokenId",
          "type": "uint256"
        },
        {
          "indexed": false,
          "internalType": "address",
          "name": "seller",
          "type": "address"
        },
        {
          "indexed": false,
          "internalType": "address",
          "name": "owner",
          "type": "address"
        },
        {
          "indexed": false,
          "internalType": "uint256",
          "name": "price",
          "type": "uint256"
        },
        {
          "indexed": false,
          "internalType": "bool",
          "name": "sold",
          "type": "bool"
        }
      ],
      "name": "MarketItemCreated",
      "type": "event"
    },
    {
      "inputs": [],
      "name": "getListingPrice",
      "outputs": [
        {
          "internalType": "uint256",
          "name": "",
          "type": "uint256"
        }
      ],
      "stateMutability": "view",
      "type": "function",
      "constant": true
    },
    {
      "inputs": [
        {
          "internalType": "uint256",
          "name": "_price",
          "type": "uint256"
        }
      ],
      "name": "setListingPrice",
      "outputs": [
        {
          "internalType": "uint256",
          "name": "",
          "type": "uint256"
        }
      ],
      "stateMutability": "nonpayable",
      "type": "function"
    },
    {
      "inputs": [
        {
          "internalType": "address",
          "name": "nftContract",
          "type": "address"
        },
        {
          "internalType": "uint256",
          "name": "tokenId",
          "type": "uint256"
        },
        {
          "internalType": "uint256",
          "name": "price",
          "type": "uint256"
        }
      ],
      "name": "createMarketItem",
      "outputs": [],
      "stateMutability": "payable",
      "type": "function",
      "payable": true
    },
    {
      "inputs": [
        {
          "internalType": "address",
          "name": "nftContract",
          "type": "address"
        },
        {
          "internalType": "uint256",
          "name": "itemId",
          "type": "uint256"
        }
      ],
      "name": "createMarketSale",
      "outputs": [],
      "stateMutability": "payable",
      "type": "function",
      "payable": true
    },
    {
      "inputs": [],
      "name": "fetchMarketItems",
      "outputs": [
        {
          "components": [
            {
              "internalType": "uint256",
              "name": "itemId",
              "type": "uint256"
            },
            {
              "internalType": "address",
              "name": "nftContract",
              "type": "address"
            },
            {
              "internalType": "uint256",
              "name": "tokenId",
              "type": "uint256"
            },
            {
              "internalType": "address payable",
              "name": "seller",
              "type": "address"
            },
            {
              "internalType": "address payable",
              "name": "owner",
              "type": "address"
            },
            {
              "internalType": "uint256",
              "name": "price",
              "type": "uint256"
            },
            {
              "internalType": "bool",
              "name": "sold",
              "type": "bool"
            }
          ],
          "internalType": "struct NFTMarket.MarketItem[]",
          "name": "",
          "type": "tuple[]"
        }
      ],
      "stateMutability": "view",
      "type": "function",
      "constant": true
    },
    {
      "inputs": [],
      "name": "fetchMyNFTs",
      "outputs": [
        {
          "components": [
            {
              "internalType": "uint256",
              "name": "itemId",
              "type": "uint256"
            },
            {
              "internalType": "address",
              "name": "nftContract",
              "type": "address"
            },
            {
              "internalType": "uint256",
              "name": "tokenId",
              "type": "uint256"
            },
            {
              "internalType": "address payable",
              "name": "seller",
              "type": "address"
            },
            {
              "internalType": "address payable",
              "name": "owner",
              "type": "address"
            },
            {
              "internalType": "uint256",
              "name": "price",
              "type": "uint256"
            },
            {
              "internalType": "bool",
              "name": "sold",
              "type": "bool"
            }
          ],
          "internalType": "struct NFTMarket.MarketItem[]",
          "name": "",
          "type": "tuple[]"
        }
      ],
      "stateMutability": "view",
      "type": "function",
      "constant": true
    },
    {
      "inputs": [],
      "name": "fetchItemsCreated",
      "outputs": [
        {
          "components": [
            {
              "internalType": "uint256",
              "name": "itemId",
              "type": "uint256"
            },
            {
              "internalType": "address",
              "name": "nftContract",
              "type": "address"
            },
            {
              "internalType": "uint256",
              "name": "tokenId",
              "type": "uint256"
            },
            {
              "internalType": "address payable",
              "name": "seller",
              "type": "address"
            },
            {
              "internalType": "address payable",
              "name": "owner",
              "type": "address"
            },
            {
              "internalType": "uint256",
              "name": "price",
              "type": "uint256"
            },
            {
              "internalType": "bool",
              "name": "sold",
              "type": "bool"
            }
          ],
          "internalType": "struct NFTMarket.MarketItem[]",
          "name": "",
          "type": "tuple[]"
        }
      ],
      "stateMutability": "view",
      "type": "function",
      "constant": true
    }
  ],
  "bytecode": "0x60806040526658d15e1762800060045534801561001b57600080fd5b50600160008190555033600360006101000a81548173ffffffffffffffffffffffffffffffffffffffff021916908373ffffffffffffffffffffffffffffffffffffffff1602179055506119c2806100746000396000f3fe6080604052600436106100705760003560e01c806358eb2df51161004e57806358eb2df5146100f65780637c726b6914610112578063c23b139e1461014f578063f064c32e1461016b57610070565b80630f08efe01461007557806312e85585146100a0578063202e3740146100cb575b600080fd5b34801561008157600080fd5b5061008a610196565b604051610097919061141d565b60405180910390f35b3480156100ac57600080fd5b506100b5610475565b6040516100c2919061144e565b60405180910390f35b3480156100d757600080fd5b506100e061047f565b6040516100ed919061141d565b60405180910390f35b610110600480360381019061010b91906114c6565b6107e1565b005b34801561011e57600080fd5b5061013960048036038101906101349190611519565b610b44565b604051610146919061144e565b60405180910390f35b61016960048036038101906101649190611546565b610b8b565b005b34801561017757600080fd5b50610180610e43565b60405161018d919061141d565b60405180910390f35b606060006101a460016111a5565b905060006101b260026111a5565b6101bc60016111a5565b6101c691906115b5565b90506000808267ffffffffffffffff8111156101e5576101e46115e9565b5b60405190808252806020026020018201604052801561021e57816020015b61020b6111c9565b8152602001906001900390816102035790505b50905060005b8481101561046a57600073ffffffffffffffffffffffffffffffffffffffff16600560006001846102559190611618565b815260200190815260200160002060040160009054906101000a900473ffffffffffffffffffffffffffffffffffffffff1673ffffffffffffffffffffffffffffffffffffffff1603610457576000600560006001846102b59190611618565b81526020019081526020016000206000015490506000600560008381526020019081526020016000209050806040518060e0016040529081600082015481526020016001820160009054906101000a900473ffffffffffffffffffffffffffffffffffffffff1673ffffffffffffffffffffffffffffffffffffffff1673ffffffffffffffffffffffffffffffffffffffff168152602001600282015481526020016003820160009054906101000a900473ffffffffffffffffffffffffffffffffffffffff1673ffffffffffffffffffffffffffffffffffffffff1673ffffffffffffffffffffffffffffffffffffffff1681526020016004820160009054906101000a900473ffffffffffffffffffffffffffffffffffffffff1673ffffffffffffffffffffffffffffffffffffffff1673ffffffffffffffffffffffffffffffffffffffff168152602001600582015481526020016006820160009054906101000a900460ff16151515158152505084868151811061043a5761043961166e565b5b60200260200101819052506001856104529190611618565b945050505b80806104629061169d565b915050610224565b508094505050505090565b6000600454905090565b6060600061048d60016111a5565b905060008060005b83811015610535573373ffffffffffffffffffffffffffffffffffffffff16600560006001846104c59190611618565b815260200190815260200160002060040160009054906101000a900473ffffffffffffffffffffffffffffffffffffffff1673ffffffffffffffffffffffffffffffffffffffff16036105225760018361051f9190611618565b92505b808061052d9061169d565b915050610495565b5060008267ffffffffffffffff811115610552576105516115e9565b5b60405190808252806020026020018201604052801561058b57816020015b6105786111c9565b8152602001906001900390816105705790505b50905060005b848110156107d6573373ffffffffffffffffffffffffffffffffffffffff16600560006001846105c19190611618565b815260200190815260200160002060040160009054906101000a900473ffffffffffffffffffffffffffffffffffffffff1673ffffffffffffffffffffffffffffffffffffffff16036107c3576000600560006001846106219190611618565b81526020019081526020016000206000015490506000600560008381526020019081526020016000209050806040518060e0016040529081600082015481526020016001820160009054906101000a900473ffffffffffffffffffffffffffffffffffffffff1673ffffffffffffffffffffffffffffffffffffffff1673ffffffffffffffffffffffffffffffffffffffff168152602001600282015481526020016003820160009054906101000a900473ffffffffffffffffffffffffffffffffffffffff1673ffffffffffffffffffffffffffffffffffffffff1673ffffffffffffffffffffffffffffffffffffffff1681526020016004820160009054906101000a900473ffffffffffffffffffffffffffffffffffffffff1673ffffffffffffffffffffffffffffffffffffffff1673ffffffffffffffffffffffffffffffffffffffff168152602001600582015481526020016006820160009054906101000a900460ff1615151515815250508486815181106107a6576107a561166e565b5b60200260200101819052506001856107be9190611618565b945050505b80806107ce9061169d565b915050610591565b508094505050505090565b600260005403610826576040517f08c379a000000000000000000000000000000000000000000000000000000000815260040161081d90611742565b60405180910390fd5b600260008190555060008111610871576040517f08c379a0000000000000000000000000000000000000000000000000000000008152600401610868906117ae565b60405180910390fd5b60045434146108b5576040517f08c379a00000000000000000000000000000000000000000000000000000000081526004016108ac90611840565b60405180910390fd5b6108bf60016111b3565b60006108cb60016111a5565b90506040518060e001604052808281526020018573ffffffffffffffffffffffffffffffffffffffff1681526020018481526020013373ffffffffffffffffffffffffffffffffffffffff168152602001600073ffffffffffffffffffffffffffffffffffffffff16815260200183815260200160001515815250600560008381526020019081526020016000206000820151816000015560208201518160010160006101000a81548173ffffffffffffffffffffffffffffffffffffffff021916908373ffffffffffffffffffffffffffffffffffffffff1602179055506040820151816002015560608201518160030160006101000a81548173ffffffffffffffffffffffffffffffffffffffff021916908373ffffffffffffffffffffffffffffffffffffffff16021790555060808201518160040160006101000a81548173ffffffffffffffffffffffffffffffffffffffff021916908373ffffffffffffffffffffffffffffffffffffffff16021790555060a0820151816005015560c08201518160060160006101000a81548160ff0219169083151502179055509050508373ffffffffffffffffffffffffffffffffffffffff166323b872dd3330866040518463ffffffff1660e01b8152600401610aac9392919061186f565b600060405180830381600087803b158015610ac657600080fd5b505af1158015610ada573d6000803e3d6000fd5b50505050828473ffffffffffffffffffffffffffffffffffffffff16827f045dfa01dcba2b36aba1d3dc4a874f4b0c5d2fbeb8d2c4b34a7d88c8d8f929d1336000876000604051610b2e94939291906118b5565b60405180910390a4506001600081905550505050565b60003073ffffffffffffffffffffffffffffffffffffffff163373ffffffffffffffffffffffffffffffffffffffff1603610b8157816004819055505b6004549050919050565b600260005403610bd0576040517f08c379a0000000000000000000000000000000000000000000000000000000008152600401610bc790611742565b60405180910390fd5b6002600081905550600060056000838152602001908152602001600020600501549050600060056000848152602001908152602001600020600201549050813414610c50576040517f08c379a0000000000000000000000000000000000000000000000000000000008152600401610c479061196c565b60405180910390fd5b6005600084815260200190815260200160002060030160009054906101000a900473ffffffffffffffffffffffffffffffffffffffff1673ffffffffffffffffffffffffffffffffffffffff166108fc349081150290604051600060405180830381858888f19350505050158015610ccc573d6000803e3d6000fd5b508373ffffffffffffffffffffffffffffffffffffffff166323b872dd3033846040518463ffffffff1660e01b8152600401610d0a9392919061186f565b600060405180830381600087803b158015610d2457600080fd5b505af1158015610d38573d6000803e3d6000fd5b50505050336005600085815260200190815260200160002060040160006101000a81548173ffffffffffffffffffffffffffffffffffffffff021916908373ffffffffffffffffffffffffffffffffffffffff16021790555060016005600085815260200190815260200160002060060160006101000a81548160ff021916908315150217905550610dca60026111b3565b600360009054906101000a900473ffffffffffffffffffffffffffffffffffffffff1673ffffffffffffffffffffffffffffffffffffffff166108fc6004549081150290604051600060405180830381858888f19350505050158015610e34573d6000803e3d6000fd5b50505060016000819055505050565b60606000610e5160016111a5565b905060008060005b83811015610ef9573373ffffffffffffffffffffffffffffffffffffffff1660056000600184610e899190611618565b815260200190815260200160002060030160009054906101000a900473ffffffffffffffffffffffffffffffffffffffff1673ffffffffffffffffffffffffffffffffffffffff1603610ee657600183610ee39190611618565b92505b8080610ef19061169d565b915050610e59565b5060008267ffffffffffffffff811115610f1657610f156115e9565b5b604051908082528060200260200182016040528015610f4f57816020015b610f3c6111c9565b815260200190600190039081610f345790505b50905060005b8481101561119a573373ffffffffffffffffffffffffffffffffffffffff1660056000600184610f859190611618565b815260200190815260200160002060030160009054906101000a900473ffffffffffffffffffffffffffffffffffffffff1673ffffffffffffffffffffffffffffffffffffffff160361118757600060056000600184610fe59190611618565b81526020019081526020016000206000015490506000600560008381526020019081526020016000209050806040518060e0016040529081600082015481526020016001820160009054906101000a900473ffffffffffffffffffffffffffffffffffffffff1673ffffffffffffffffffffffffffffffffffffffff1673ffffffffffffffffffffffffffffffffffffffff168152602001600282015481526020016003820160009054906101000a900473ffffffffffffffffffffffffffffffffffffffff1673ffffffffffffffffffffffffffffffffffffffff1673ffffffffffffffffffffffffffffffffffffffff1681526020016004820160009054906101000a900473ffffffffffffffffffffffffffffffffffffffff1673ffffffffffffffffffffffffffffffffffffffff1673ffffffffffffffffffffffffffffffffffffffff168152602001600582015481526020016006820160009054906101000a900460ff16151515158152505084868151811061116a5761116961166e565b5b60200260200101819052506001856111829190611618565b945050505b80806111929061169d565b915050610f55565b508094505050505090565b600081600001549050919050565b6001816000016000828254019250508190555050565b6040518060e0016040528060008152602001600073ffffffffffffffffffffffffffffffffffffffff16815260200160008152602001600073ffffffffffffffffffffffffffffffffffffffff168152602001600073ffffffffffffffffffffffffffffffffffffffff168152602001600081526020016000151581525090565b600081519050919050565b600082825260208201905092915050565b6000819050602082019050919050565b6000819050919050565b61128981611276565b82525050565b600073ffffffffffffffffffffffffffffffffffffffff82169050919050565b60006112ba8261128f565b9050919050565b6112ca816112af565b82525050565b60006112db8261128f565b9050919050565b6112eb816112d0565b82525050565b60008115159050919050565b611306816112f1565b82525050565b60e0820160008201516113226000850182611280565b50602082015161133560208501826112c1565b5060408201516113486040850182611280565b50606082015161135b60608501826112e2565b50608082015161136e60808501826112e2565b5060a082015161138160a0850182611280565b5060c082015161139460c08501826112fd565b50505050565b60006113a6838361130c565b60e08301905092915050565b6000602082019050919050565b60006113ca8261124a565b6113d48185611255565b93506113df83611266565b8060005b838110156114105781516113f7888261139a565b9750611402836113b2565b9250506001810190506113e3565b5085935050505092915050565b6000602082019050818103600083015261143781846113bf565b905092915050565b61144881611276565b82525050565b6000602082019050611463600083018461143f565b92915050565b600080fd5b611477816112af565b811461148257600080fd5b50565b6000813590506114948161146e565b92915050565b6114a381611276565b81146114ae57600080fd5b50565b6000813590506114c08161149a565b92915050565b6000806000606084860312156114df576114de611469565b5b60006114ed86828701611485565b93505060206114fe868287016114b1565b925050604061150f868287016114b1565b9150509250925092565b60006020828403121561152f5761152e611469565b5b600061153d848285016114b1565b91505092915050565b6000806040838503121561155d5761155c611469565b5b600061156b85828601611485565b925050602061157c858286016114b1565b9150509250929050565b7f4e487b7100000000000000000000000000000000000000000000000000000000600052601160045260246000fd5b60006115c082611276565b91506115cb83611276565b9250828210156115de576115dd611586565b5b828203905092915050565b7f4e487b7100000000000000000000000000000000000000000000000000000000600052604160045260246000fd5b600061162382611276565b915061162e83611276565b9250827fffffffffffffffffffffffffffffffffffffffffffffffffffffffffffffffff0382111561166357611662611586565b5b828201905092915050565b7f4e487b7100000000000000000000000000000000000000000000000000000000600052603260045260246000fd5b60006116a882611276565b91507fffffffffffffffffffffffffffffffffffffffffffffffffffffffffffffffff82036116da576116d9611586565b5b600182019050919050565b600082825260208201905092915050565b7f5265656e7472616e637947756172643a207265656e7472616e742063616c6c00600082015250565b600061172c601f836116e5565b9150611737826116f6565b602082019050919050565b6000602082019050818103600083015261175b8161171f565b9050919050565b7f5072696365206d7573742062652061626f7665207a65726f0000000000000000600082015250565b60006117986018836116e5565b91506117a382611762565b602082019050919050565b600060208201905081810360008301526117c78161178b565b9050919050565b7f5072696365206d75737420626520657175616c20746f206c697374696e67207060008201527f7269636500000000000000000000000000000000000000000000000000000000602082015250565b600061182a6024836116e5565b9150611835826117ce565b604082019050919050565b600060208201905081810360008301526118598161181d565b9050919050565b611869816112af565b82525050565b60006060820190506118846000830186611860565b6118916020830185611860565b61189e604083018461143f565b949350505050565b6118af816112f1565b82525050565b60006080820190506118ca6000830187611860565b6118d76020830186611860565b6118e4604083018561143f565b6118f160608301846118a6565b95945050505050565b7f506c65617365207375626d6974207468652061736b696e67207072696365206960008201527f6e206f7264657220746f20636f6d706c65746520707572636861736500000000602082015250565b6000611956603c836116e5565b9150611961826118fa565b604082019050919050565b6000602082019050818103600083015261198581611949565b905091905056fea2646970667358221220cee4276b82752dfe12f5bc8433d6cd43494d97d06decce108c3620d29b1b04bd64736f6c634300080d0033",
  "immutableReferences": {},
  "source": "//SPDX-License-Identifier: MIT\npragma solidity ^0.8.0;\n\nimport \"@openzeppelin/contracts/utils/Counters.sol\";\nimport \"@openzeppelin/contracts/token/ERC721/ERC721.sol\";\n //prevents re-entrancy attacks\nimport \"@openzeppelin/contracts/security/ReentrancyGuard.sol\";\n\ncontract NFTMarket is ReentrancyGuard {\n    using Counters for Counters.Counter;\n    Counters.Counter private _itemIds; //total number of items ever created\n    Counters.Counter private _itemsSold; //total number of items sold\n\n    address payable owner; //owner of the smart contract\n    //people have to pay to puy their NFT on this marketplace\n    uint256 listingPrice = 0.025 ether;\n\n    constructor(){\n        owner = payable(msg.sender);\n    }\n\n    struct MarketItem {\n        uint itemId;\n        address nftContract;\n        uint256 tokenId;\n        address payable seller; //person selling the nft\n        address payable owner; //owner of the nft\n        uint256 price;\n        bool sold;\n    }\n\n    //a way to access values of the MarketItem struct above by passing an integer ID\n    mapping(uint256 => MarketItem) private idMarketItem;\n\n    //log message (when Item is sold)\n    event MarketItemCreated (\n        uint indexed itemId,\n        address indexed nftContract,\n        uint256 indexed tokenId,\n        address  seller,\n        address  owner,\n        uint256 price,\n        bool sold\n    );\n\n    /// @notice function to get listingprice\n    function getListingPrice() public view returns (uint256){\n        return listingPrice;\n    }\n\n    function setListingPrice(uint _price) public returns(uint) {\n         if(msg.sender == address(this) ){\n             listingPrice = _price;\n         }\n         return listingPrice;\n    }\n\n    /// @notice function to create market item\n    function createMarketItem(\n        address nftContract,\n        uint256 tokenId,\n        uint256 price) public payable nonReentrant{\n         require(price > 0, \"Price must be above zero\");\n         require(msg.value == listingPrice, \"Price must be equal to listing price\");\n\n         _itemIds.increment(); //add 1 to the total number of items ever created\n         uint256 itemId = _itemIds.current();\n\n         idMarketItem[itemId] = MarketItem(\n             itemId,\n             nftContract,\n             tokenId,\n             payable(msg.sender), //address of the seller putting the nft up for sale\n             payable(address(0)), //no owner yet (set owner to empty address)\n             price,\n             false\n         );\n\n            //transfer ownership of the nft to the contract itself\n            IERC721(nftContract).transferFrom(msg.sender, address(this), tokenId);\n\n            //log this transaction\n            emit MarketItemCreated(\n                itemId,\n             nftContract,\n             tokenId,\n             msg.sender,\n             address(0),\n             price,\n             false);\n\n        }\n\n\n        /// @notice function to create a sale\n        function createMarketSale(\n            address nftContract,\n            uint256 itemId\n            ) public payable nonReentrant{\n                uint price = idMarketItem[itemId].price;\n                uint tokenId = idMarketItem[itemId].tokenId;\n\n                require(msg.value == price, \"Please submit the asking price in order to complete purchase\");\n\n           //pay the seller the amount\n           idMarketItem[itemId].seller.transfer(msg.value);\n\n             //transfer ownership of the nft from the contract itself to the buyer\n            IERC721(nftContract).transferFrom(address(this), msg.sender, tokenId);\n\n            idMarketItem[itemId].owner = payable(msg.sender); //mark buyer as new owner\n            idMarketItem[itemId].sold = true; //mark that it has been sold\n            _itemsSold.increment(); //increment the total number of Items sold by 1\n            payable(owner).transfer(listingPrice); //pay owner of contract the listing price\n        }\n\n\n        /// @notice total number of items unsold on our platform\n        function fetchMarketItems() public view returns (MarketItem[] memory){\n            uint itemCount = _itemIds.current(); //total number of items ever created\n            //total number of items that are unsold = total items ever created - total items ever sold\n            uint unsoldItemCount = _itemIds.current() - _itemsSold.current();\n            uint currentIndex = 0;\n\n            MarketItem[] memory items =  new MarketItem[](unsoldItemCount);\n\n            //loop through all items ever created\n            for(uint i = 0; i < itemCount; i++){\n\n                //get only unsold item\n                //check if the item has not been sold\n                //by checking if the owner field is empty\n                if(idMarketItem[i+1].owner == address(0)){\n                    //yes, this item has never been sold\n                    uint currentId = idMarketItem[i + 1].itemId;\n                    MarketItem storage currentItem = idMarketItem[currentId];\n                    items[currentIndex] = currentItem;\n                    currentIndex += 1;\n\n                }\n            }\n            return items; //return array of all unsold items\n        }\n\n        /// @notice fetch list of NFTS owned/bought by this user\n        function fetchMyNFTs() public view returns (MarketItem[] memory){\n            //get total number of items ever created\n            uint totalItemCount = _itemIds.current();\n\n            uint itemCount = 0;\n            uint currentIndex = 0;\n\n\n            for(uint i = 0; i < totalItemCount; i++){\n                //get only the items that this user has bought/is the owner\n                if(idMarketItem[i+1].owner == msg.sender){\n                    itemCount += 1; //total length\n                }\n            }\n\n            MarketItem[] memory items = new MarketItem[](itemCount);\n            for(uint i = 0; i < totalItemCount; i++){\n               if(idMarketItem[i+1].owner == msg.sender){\n                   uint currentId = idMarketItem[i+1].itemId;\n                   MarketItem storage currentItem = idMarketItem[currentId];\n                   items[currentIndex] = currentItem;\n                   currentIndex += 1;\n               }\n            }\n            return items;\n\n        }\n\n\n         /// @notice fetch list of NFTS owned/bought by this user\n        function fetchItemsCreated() public view returns (MarketItem[] memory){\n            //get total number of items ever created\n            uint totalItemCount = _itemIds.current();\n\n            uint itemCount = 0;\n            uint currentIndex = 0;\n\n\n            for(uint i = 0; i < totalItemCount; i++){\n                //get only the items that this user has bought/is the owner\n                if(idMarketItem[i+1].seller == msg.sender){\n                    itemCount += 1; //total length\n                }\n            }\n\n            MarketItem[] memory items = new MarketItem[](itemCount);\n            for(uint i = 0; i < totalItemCount; i++){\n               if(idMarketItem[i+1].seller == msg.sender){\n                   uint currentId = idMarketItem[i+1].itemId;\n                   MarketItem storage currentItem = idMarketItem[currentId];\n                   items[currentIndex] = currentItem;\n                   currentIndex += 1;\n               }\n            }\n            return items;\n\n        }\n\n\n\n\n}\n",
  "sourcePath": "/Users/mamadouseck/Desktop/Development/Courses/Alyra/Projects/NFT-PROJECT/truffle/contracts/NFTMarket.sol",
  "compiler": {
    "name": "solc",
    "version": "0.8.13+commit.abaa5c0e.Emscripten.clang"
  },
  "schemaVersion": "3.4.6",
  "updatedAt": "2022-05-14T16:44:42.284Z",
  "networkType": "ethereum",
  "devdoc": {
    "kind": "dev",
    "methods": {},
    "version": 1
  },
  "userdoc": {
    "kind": "user",
    "methods": {
      "createMarketItem(address,uint256,uint256)": {
        "notice": "function to create market item"
      },
      "createMarketSale(address,uint256)": {
        "notice": "function to create a sale"
      },
      "fetchItemsCreated()": {
        "notice": "fetch list of NFTS owned/bought by this user"
      },
      "fetchMarketItems()": {
        "notice": "total number of items unsold on our platform"
      },
      "fetchMyNFTs()": {
        "notice": "fetch list of NFTS owned/bought by this user"
      },
      "getListingPrice()": {
        "notice": "function to get listingprice"
      }
    },
    "version": 1
  }
}